{
  "_format": "hh-sol-artifact-1",
  "contractName": "BullBTC",
  "sourceName": "contracts/hbit.sol",
  "abi": [
    {
      "inputs": [
        {
          "internalType": "address",
          "name": "_usdt",
          "type": "address"
        },
        {
          "internalType": "address",
          "name": "_uniswapRouter",
          "type": "address"
        }
      ],
      "stateMutability": "nonpayable",
      "type": "constructor"
    },
    {
      "inputs": [
        {
          "internalType": "address",
          "name": "spender",
          "type": "address"
        },
        {
          "internalType": "uint256",
          "name": "allowance",
          "type": "uint256"
        },
        {
          "internalType": "uint256",
          "name": "needed",
          "type": "uint256"
        }
      ],
      "name": "ERC20InsufficientAllowance",
      "type": "error"
    },
    {
      "inputs": [
        {
          "internalType": "address",
          "name": "sender",
          "type": "address"
        },
        {
          "internalType": "uint256",
          "name": "balance",
          "type": "uint256"
        },
        {
          "internalType": "uint256",
          "name": "needed",
          "type": "uint256"
        }
      ],
      "name": "ERC20InsufficientBalance",
      "type": "error"
    },
    {
      "inputs": [
        {
          "internalType": "address",
          "name": "approver",
          "type": "address"
        }
      ],
      "name": "ERC20InvalidApprover",
      "type": "error"
    },
    {
      "inputs": [
        {
          "internalType": "address",
          "name": "receiver",
          "type": "address"
        }
      ],
      "name": "ERC20InvalidReceiver",
      "type": "error"
    },
    {
      "inputs": [
        {
          "internalType": "address",
          "name": "sender",
          "type": "address"
        }
      ],
      "name": "ERC20InvalidSender",
      "type": "error"
    },
    {
      "inputs": [
        {
          "internalType": "address",
          "name": "spender",
          "type": "address"
        }
      ],
      "name": "ERC20InvalidSpender",
      "type": "error"
    },
    {
      "anonymous": false,
      "inputs": [
        {
          "indexed": true,
          "internalType": "address",
          "name": "owner",
          "type": "address"
        },
        {
          "indexed": true,
          "internalType": "address",
          "name": "spender",
          "type": "address"
        },
        {
          "indexed": false,
          "internalType": "uint256",
          "name": "value",
          "type": "uint256"
        }
      ],
      "name": "Approval",
      "type": "event"
    },
    {
      "anonymous": false,
      "inputs": [
        {
          "indexed": true,
          "internalType": "address",
          "name": "previousOwner",
          "type": "address"
        },
        {
          "indexed": true,
          "internalType": "address",
          "name": "newOwner",
          "type": "address"
        }
      ],
      "name": "OwnershipTransferred",
      "type": "event"
    },
    {
      "anonymous": false,
      "inputs": [
        {
          "indexed": true,
          "internalType": "address",
          "name": "from",
          "type": "address"
        },
        {
          "indexed": true,
          "internalType": "address",
          "name": "to",
          "type": "address"
        },
        {
          "indexed": false,
          "internalType": "uint256",
          "name": "value",
          "type": "uint256"
        }
      ],
      "name": "Transfer",
      "type": "event"
    },
    {
      "inputs": [
        {
          "internalType": "address",
          "name": "account",
          "type": "address"
        }
      ],
      "name": "addWalletInExcluded",
      "outputs": [],
      "stateMutability": "nonpayable",
      "type": "function"
    },
    {
      "inputs": [
        {
          "internalType": "address",
          "name": "owner",
          "type": "address"
        },
        {
          "internalType": "address",
          "name": "spender",
          "type": "address"
        }
      ],
      "name": "allowance",
      "outputs": [
        {
          "internalType": "uint256",
          "name": "",
          "type": "uint256"
        }
      ],
      "stateMutability": "view",
      "type": "function"
    },
    {
      "inputs": [
        {
          "internalType": "address",
          "name": "spender",
          "type": "address"
        },
        {
          "internalType": "uint256",
          "name": "value",
          "type": "uint256"
        }
      ],
      "name": "approve",
      "outputs": [
        {
          "internalType": "bool",
          "name": "",
          "type": "bool"
        }
      ],
      "stateMutability": "nonpayable",
      "type": "function"
    },
    {
      "inputs": [
        {
          "internalType": "address",
          "name": "account",
          "type": "address"
        }
      ],
      "name": "balanceOf",
      "outputs": [
        {
          "internalType": "uint256",
          "name": "",
          "type": "uint256"
        }
      ],
      "stateMutability": "view",
      "type": "function"
    },
    {
      "inputs": [],
      "name": "decimals",
      "outputs": [
        {
          "internalType": "uint8",
          "name": "",
          "type": "uint8"
        }
      ],
      "stateMutability": "view",
      "type": "function"
    },
    {
      "inputs": [
        {
          "internalType": "address",
          "name": "account",
          "type": "address"
        }
      ],
      "name": "isExcluded",
      "outputs": [
        {
          "internalType": "bool",
          "name": "",
          "type": "bool"
        }
      ],
      "stateMutability": "view",
      "type": "function"
    },
    {
      "inputs": [],
      "name": "name",
      "outputs": [
        {
          "internalType": "string",
          "name": "",
          "type": "string"
        }
      ],
      "stateMutability": "view",
      "type": "function"
    },
    {
      "inputs": [],
      "name": "owner",
      "outputs": [
        {
          "internalType": "address",
          "name": "",
          "type": "address"
        }
      ],
      "stateMutability": "view",
      "type": "function"
    },
    {
      "inputs": [
        {
          "internalType": "address",
          "name": "account",
          "type": "address"
        }
      ],
      "name": "removeWalletInExcluded",
      "outputs": [],
      "stateMutability": "nonpayable",
      "type": "function"
    },
    {
      "inputs": [],
      "name": "renounceOwnership",
      "outputs": [],
      "stateMutability": "nonpayable",
      "type": "function"
    },
    {
      "inputs": [],
      "name": "symbol",
      "outputs": [
        {
          "internalType": "string",
          "name": "",
          "type": "string"
        }
      ],
      "stateMutability": "view",
      "type": "function"
    },
    {
      "inputs": [],
      "name": "totalSupply",
      "outputs": [
        {
          "internalType": "uint256",
          "name": "",
          "type": "uint256"
        }
      ],
      "stateMutability": "view",
      "type": "function"
    },
    {
      "inputs": [
        {
          "internalType": "address",
          "name": "to",
          "type": "address"
        },
        {
          "internalType": "uint256",
          "name": "value",
          "type": "uint256"
        }
      ],
      "name": "transfer",
      "outputs": [
        {
          "internalType": "bool",
          "name": "",
          "type": "bool"
        }
      ],
      "stateMutability": "nonpayable",
      "type": "function"
    },
    {
      "inputs": [
        {
          "internalType": "address",
          "name": "from",
          "type": "address"
        },
        {
          "internalType": "address",
          "name": "to",
          "type": "address"
        },
        {
          "internalType": "uint256",
          "name": "value",
          "type": "uint256"
        }
      ],
      "name": "transferFrom",
      "outputs": [
        {
          "internalType": "bool",
          "name": "",
          "type": "bool"
        }
      ],
      "stateMutability": "nonpayable",
      "type": "function"
    },
    {
      "inputs": [
        {
          "internalType": "address",
          "name": "newOwner",
          "type": "address"
        }
      ],
      "name": "transferOwnership",
      "outputs": [],
      "stateMutability": "nonpayable",
      "type": "function"
    },
    {
      "inputs": [],
      "name": "uniswapRouter",
      "outputs": [
        {
          "internalType": "contract IUniswapV2Router02",
          "name": "",
          "type": "address"
        }
      ],
      "stateMutability": "view",
      "type": "function"
    },
    {
      "inputs": [],
      "name": "uniswapV2Pair",
      "outputs": [
        {
          "internalType": "address",
          "name": "",
          "type": "address"
        }
      ],
      "stateMutability": "view",
      "type": "function"
    }
  ],
  "bytecode": "0x60806040523480156200001157600080fd5b506040516200107f3803806200107f8339810160408190526200003491620003c5565b60408051808201825260088082526742554c4c2042544360c01b6020808401829052845180860190955291845290830152906003620000748382620004a4565b506004620000838282620004a4565b505050620000a06200009a620001dd60201b60201c565b620001e1565b600680546001600160a01b0319166001600160a01b0383169081179091556040805163c45a015560e01b8152905163c45a0155916004808201926020929091908290030181865afa158015620000fa573d6000803e3d6000fd5b505050506040513d601f19601f8201168201806040525081019062000120919062000570565b6040516364e329cb60e11b81523060048201526001600160a01b038481166024830152919091169063c9c65396906044016020604051808303816000875af115801562000171573d6000803e3d6000fd5b505050506040513d601f19601f8201168201806040525081019062000197919062000570565b600780546001600160a01b0319166001600160a01b0392909216919091179055620001d5620001c33390565b6a01bcb13a657b263880000062000233565b5050620005bd565b3390565b600580546001600160a01b038381166001600160a01b0319831681179093556040519116919082907f8be0079c531659141344cd1fd0a4f28419497f9722a3daafe3b4186f6b6457e090600090a35050565b6001600160a01b038216620002635760405163ec442f0560e01b8152600060048201526024015b60405180910390fd5b620002716000838362000275565b5050565b6001600160a01b038316620002a457806002600082825462000298919062000595565b90915550620003189050565b6001600160a01b03831660009081526020819052604090205481811015620002f95760405163391434e360e21b81526001600160a01b038516600482015260248101829052604481018390526064016200025a565b6001600160a01b03841660009081526020819052604090209082900390555b6001600160a01b038216620003365760028054829003905562000355565b6001600160a01b03821660009081526020819052604090208054820190555b816001600160a01b0316836001600160a01b03167fddf252ad1be2c89b69c2b068fc378daa952ba7f163c4a11628f55a4df523b3ef836040516200039b91815260200190565b60405180910390a3505050565b80516001600160a01b0381168114620003c057600080fd5b919050565b60008060408385031215620003d957600080fd5b620003e483620003a8565b9150620003f460208401620003a8565b90509250929050565b634e487b7160e01b600052604160045260246000fd5b600181811c908216806200042857607f821691505b6020821081036200044957634e487b7160e01b600052602260045260246000fd5b50919050565b601f8211156200049f576000816000526020600020601f850160051c810160208610156200047a5750805b601f850160051c820191505b818110156200049b5782815560010162000486565b5050505b505050565b81516001600160401b03811115620004c057620004c0620003fd565b620004d881620004d1845462000413565b846200044f565b602080601f831160018114620005105760008415620004f75750858301515b600019600386901b1c1916600185901b1785556200049b565b600085815260208120601f198616915b82811015620005415788860151825594840194600190910190840162000520565b5085821015620005605787850151600019600388901b60f8161c191681555b5050505050600190811b01905550565b6000602082840312156200058357600080fd5b6200058e82620003a8565b9392505050565b80820180821115620005b757634e487b7160e01b600052601160045260246000fd5b92915050565b610ab280620005cd6000396000f3fe608060405234801561001057600080fd5b50600436106100db5760003560e01c806306fdde03146100e0578063095ea7b3146100fe57806318160ddd1461012157806323b872dd14610133578063313ce5671461014657806349bd5a5e1461015557806370a0823114610175578063715018a61461019e578063735de9f7146101a85780638da5cb5b146101bb57806395d89b41146101c3578063a43cdc84146101cb578063a9059cbb146101de578063cba0e996146101f1578063dd62ed3e1461021d578063f0593fcc14610230578063f2fde38b14610243575b600080fd5b6100e8610256565b6040516100f59190610898565b60405180910390f35b61011161010c366004610903565b6102e8565b60405190151581526020016100f5565b6002545b6040519081526020016100f5565b61011161014136600461092d565b610302565b604051601281526020016100f5565b600754610168906001600160a01b031681565b6040516100f59190610969565b61012561018336600461097d565b6001600160a01b031660009081526020819052604090205490565b6101a661036e565b005b600654610168906001600160a01b031681565b6101686103b2565b6100e86103c1565b6101a66101d936600461097d565b6103d0565b6101116101ec366004610903565b610420565b6101116101ff36600461097d565b6001600160a01b031660009081526008602052604090205460ff1690565b61012561022b366004610998565b610478565b6101a661023e36600461097d565b6104a3565b6101a661025136600461097d565b6104f6565b606060038054610265906109cb565b80601f0160208091040260200160405190810160405280929190818152602001828054610291906109cb565b80156102de5780601f106102b3576101008083540402835291602001916102de565b820191906000526020600020905b8154815290600101906020018083116102c157829003601f168201915b5050505050905090565b6000336102f6818585610596565b60019150505b92915050565b6000336103108582856105a8565b6007546001600160a01b039081169086160361035c576001600160a01b03841660009081526008602052604090205460ff16156100db576103528585856105fb565b6001915050610367565b6103528585856105fb565b9392505050565b336103776103b2565b6001600160a01b0316146103a65760405162461bcd60e51b815260040161039d90610a05565b60405180910390fd5b6103b0600061065a565b565b6005546001600160a01b031690565b606060048054610265906109cb565b336103d96103b2565b6001600160a01b0316146103ff5760405162461bcd60e51b815260040161039d90610a05565b6001600160a01b03166000908152600860205260409020805460ff19169055565b60075460009033906001600160a01b0316810361046d576001600160a01b03841660009081526008602052604090205460ff16156100db576104638185856105fb565b60019150506102fc565b6104638185856105fb565b6001600160a01b03918216600090815260016020908152604080832093909416825291909152205490565b336104ac6103b2565b6001600160a01b0316146104d25760405162461bcd60e51b815260040161039d90610a05565b6001600160a01b03166000908152600860205260409020805460ff19166001179055565b336104ff6103b2565b6001600160a01b0316146105255760405162461bcd60e51b815260040161039d90610a05565b6001600160a01b03811661058a5760405162461bcd60e51b815260206004820152602660248201527f4f776e61626c653a206e6577206f776e657220697320746865207a65726f206160448201526564647265737360d01b606482015260840161039d565b6105938161065a565b50565b6105a383838360016106ac565b505050565b60006105b48484610478565b905060001981146105f557818110156105e657828183604051637dc7a0d960e11b815260040161039d93929190610a3a565b6105f5848484840360006106ac565b50505050565b6001600160a01b038316610625576000604051634b637e8f60e11b815260040161039d9190610969565b6001600160a01b03821661064f57600060405163ec442f0560e01b815260040161039d9190610969565b6105a3838383610781565b600580546001600160a01b038381166001600160a01b0319831681179093556040519116919082907f8be0079c531659141344cd1fd0a4f28419497f9722a3daafe3b4186f6b6457e090600090a35050565b6001600160a01b0384166106d657600060405163e602df0560e01b815260040161039d9190610969565b6001600160a01b038316610700576000604051634a1406b160e11b815260040161039d9190610969565b6001600160a01b03808516600090815260016020908152604080832093871683529290522082905580156105f557826001600160a01b0316846001600160a01b03167f8c5be1e5ebec7d5bd14f71427d1e84f3dd0314c0f7b2291e5b200ac8c7c3b9258460405161077391815260200190565b60405180910390a350505050565b6001600160a01b0383166107ac5780600260008282546107a19190610a5b565b9091555061080b9050565b6001600160a01b038316600090815260208190526040902054818110156107ec5783818360405163391434e360e21b815260040161039d93929190610a3a565b6001600160a01b03841660009081526020819052604090209082900390555b6001600160a01b03821661082757600280548290039055610846565b6001600160a01b03821660009081526020819052604090208054820190555b816001600160a01b0316836001600160a01b03167fddf252ad1be2c89b69c2b068fc378daa952ba7f163c4a11628f55a4df523b3ef8360405161088b91815260200190565b60405180910390a3505050565b60006020808352835180602085015260005b818110156108c6578581018301518582016040015282016108aa565b506000604082860101526040601f19601f8301168501019250505092915050565b80356001600160a01b03811681146108fe57600080fd5b919050565b6000806040838503121561091657600080fd5b61091f836108e7565b946020939093013593505050565b60008060006060848603121561094257600080fd5b61094b846108e7565b9250610959602085016108e7565b9150604084013590509250925092565b6001600160a01b0391909116815260200190565b60006020828403121561098f57600080fd5b610367826108e7565b600080604083850312156109ab57600080fd5b6109b4836108e7565b91506109c2602084016108e7565b90509250929050565b600181811c908216806109df57607f821691505b6020821081036109ff57634e487b7160e01b600052602260045260246000fd5b50919050565b6020808252818101527f4f776e61626c653a2063616c6c6572206973206e6f7420746865206f776e6572604082015260600190565b6001600160a01b039390931683526020830191909152604082015260600190565b808201808211156102fc57634e487b7160e01b600052601160045260246000fdfea2646970667358221220b4a9cedcedbab16cf079fc6318d34d0e0e36e23f01836c94f5a4ee77e85cb0f064736f6c63430008180033",
  "linkReferences": {},
  "deployedLinkReferences": {}
}