{
  "_format": "hh-sol-artifact-1",
  "contractName": "Bull_BTC_Vault_Lite_01",
  "sourceName": "contracts/sto.sol",
  "abi": [
    {
      "inputs": [
        {
          "internalType": "address",
          "name": "_usdt",
          "type": "address"
        },
        {
          "internalType": "address",
          "name": "_bullbtc",
          "type": "address"
        },
        {
          "internalType": "address",
          "name": "_operator",
          "type": "address"
        },
        {
          "internalType": "address",
          "name": "team1",
          "type": "address"
        },
        {
          "internalType": "address",
          "name": "team2",
          "type": "address"
        },
        {
          "internalType": "address",
          "name": "team3",
          "type": "address"
        }
      ],
      "stateMutability": "nonpayable",
      "type": "constructor"
    },
    {
      "anonymous": false,
      "inputs": [
        {
          "indexed": true,
          "internalType": "address",
          "name": "user",
          "type": "address"
        },
        {
          "indexed": false,
          "internalType": "uint256",
          "name": "amountInUsd",
          "type": "uint256"
        }
      ],
      "name": "AirdropClaim",
      "type": "event"
    },
    {
      "anonymous": false,
      "inputs": [
        {
          "indexed": true,
          "internalType": "address",
          "name": "user",
          "type": "address"
        },
        {
          "indexed": false,
          "internalType": "uint256",
          "name": "amount",
          "type": "uint256"
        }
      ],
      "name": "AirdropEv",
      "type": "event"
    },
    {
      "anonymous": false,
      "inputs": [
        {
          "indexed": true,
          "internalType": "address",
          "name": "user",
          "type": "address"
        },
        {
          "indexed": false,
          "internalType": "uint256",
          "name": "amount",
          "type": "uint256"
        },
        {
          "indexed": false,
          "internalType": "uint256",
          "name": "amountInUsd",
          "type": "uint256"
        }
      ],
      "name": "AirdropWithdraw",
      "type": "event"
    },
    {
      "anonymous": false,
      "inputs": [
        {
          "indexed": true,
          "internalType": "address",
          "name": "sender",
          "type": "address"
        },
        {
          "indexed": true,
          "internalType": "address",
          "name": "receiver",
          "type": "address"
        },
        {
          "indexed": false,
          "internalType": "uint256",
          "name": "amountInUsd",
          "type": "uint256"
        }
      ],
      "name": "DirectIncome",
      "type": "event"
    },
    {
      "anonymous": false,
      "inputs": [
        {
          "indexed": true,
          "internalType": "address",
          "name": "user",
          "type": "address"
        },
        {
          "indexed": false,
          "internalType": "uint256",
          "name": "amountInUsd",
          "type": "uint256"
        },
        {
          "indexed": false,
          "internalType": "uint256",
          "name": "amount",
          "type": "uint256"
        }
      ],
      "name": "EvStake",
      "type": "event"
    },
    {
      "anonymous": false,
      "inputs": [
        {
          "indexed": true,
          "internalType": "address",
          "name": "sender",
          "type": "address"
        },
        {
          "indexed": true,
          "internalType": "address",
          "name": "receiver",
          "type": "address"
        },
        {
          "indexed": false,
          "internalType": "uint256",
          "name": "level",
          "type": "uint256"
        },
        {
          "indexed": false,
          "internalType": "uint256",
          "name": "amountInUsd",
          "type": "uint256"
        }
      ],
      "name": "LevelIncome",
      "type": "event"
    },
    {
      "anonymous": false,
      "inputs": [
        {
          "indexed": true,
          "internalType": "address",
          "name": "previousOwner",
          "type": "address"
        },
        {
          "indexed": true,
          "internalType": "address",
          "name": "newOwner",
          "type": "address"
        }
      ],
      "name": "OwnershipTransferred",
      "type": "event"
    },
    {
      "anonymous": false,
      "inputs": [
        {
          "indexed": false,
          "internalType": "address",
          "name": "account",
          "type": "address"
        }
      ],
      "name": "Paused",
      "type": "event"
    },
    {
      "anonymous": false,
      "inputs": [
        {
          "indexed": true,
          "internalType": "address",
          "name": "user",
          "type": "address"
        },
        {
          "indexed": true,
          "internalType": "address",
          "name": "referrer",
          "type": "address"
        },
        {
          "indexed": false,
          "internalType": "uint256",
          "name": "userId",
          "type": "uint256"
        },
        {
          "indexed": false,
          "internalType": "uint256",
          "name": "referrerId",
          "type": "uint256"
        }
      ],
      "name": "Registration",
      "type": "event"
    },
    {
      "anonymous": false,
      "inputs": [
        {
          "indexed": true,
          "internalType": "address",
          "name": "user",
          "type": "address"
        },
        {
          "indexed": false,
          "internalType": "uint256",
          "name": "tokenAmt",
          "type": "uint256"
        },
        {
          "indexed": false,
          "internalType": "string",
          "name": "rewardType",
          "type": "string"
        }
      ],
      "name": "Reward",
      "type": "event"
    },
    {
      "anonymous": false,
      "inputs": [
        {
          "indexed": false,
          "internalType": "address",
          "name": "account",
          "type": "address"
        }
      ],
      "name": "Unpaused",
      "type": "event"
    },
    {
      "anonymous": false,
      "inputs": [
        {
          "indexed": true,
          "internalType": "address",
          "name": "user",
          "type": "address"
        },
        {
          "indexed": false,
          "internalType": "uint256",
          "name": "amount",
          "type": "uint256"
        },
        {
          "indexed": false,
          "internalType": "uint256",
          "name": "amountInUsd",
          "type": "uint256"
        }
      ],
      "name": "Withdraw",
      "type": "event"
    },
    {
      "anonymous": false,
      "inputs": [
        {
          "indexed": true,
          "internalType": "address",
          "name": "user",
          "type": "address"
        }
      ],
      "name": "teamAchived",
      "type": "event"
    },
    {
      "anonymous": false,
      "inputs": [
        {
          "indexed": true,
          "internalType": "address",
          "name": "user",
          "type": "address"
        },
        {
          "indexed": false,
          "internalType": "uint256",
          "name": "amount",
          "type": "uint256"
        }
      ],
      "name": "teamIncome",
      "type": "event"
    },
    {
      "inputs": [],
      "name": "BULLBTC",
      "outputs": [
        {
          "internalType": "address",
          "name": "",
          "type": "address"
        }
      ],
      "stateMutability": "view",
      "type": "function"
    },
    {
      "inputs": [],
      "name": "LASTLEVEL",
      "outputs": [
        {
          "internalType": "uint256",
          "name": "",
          "type": "uint256"
        }
      ],
      "stateMutability": "view",
      "type": "function"
    },
    {
      "inputs": [],
      "name": "PERCENT_DIVIDER",
      "outputs": [
        {
          "internalType": "uint256",
          "name": "",
          "type": "uint256"
        }
      ],
      "stateMutability": "view",
      "type": "function"
    },
    {
      "inputs": [],
      "name": "TIME_STEP",
      "outputs": [
        {
          "internalType": "uint256",
          "name": "",
          "type": "uint256"
        }
      ],
      "stateMutability": "view",
      "type": "function"
    },
    {
      "inputs": [],
      "name": "TIME_STEP_MONTH",
      "outputs": [
        {
          "internalType": "uint256",
          "name": "",
          "type": "uint256"
        }
      ],
      "stateMutability": "view",
      "type": "function"
    },
    {
      "inputs": [],
      "name": "USDT",
      "outputs": [
        {
          "internalType": "address",
          "name": "",
          "type": "address"
        }
      ],
      "stateMutability": "view",
      "type": "function"
    },
    {
      "inputs": [
        {
          "internalType": "address",
          "name": "_user",
          "type": "address"
        }
      ],
      "name": "_calculateRemainingLimit",
      "outputs": [
        {
          "internalType": "uint256",
          "name": "",
          "type": "uint256"
        }
      ],
      "stateMutability": "view",
      "type": "function"
    },
    {
      "inputs": [],
      "name": "airdropAmount",
      "outputs": [
        {
          "internalType": "uint256",
          "name": "",
          "type": "uint256"
        }
      ],
      "stateMutability": "view",
      "type": "function"
    },
    {
      "inputs": [],
      "name": "airdropPerMonth",
      "outputs": [
        {
          "internalType": "uint256",
          "name": "",
          "type": "uint256"
        }
      ],
      "stateMutability": "view",
      "type": "function"
    },
    {
      "inputs": [],
      "name": "airdropUserCount",
      "outputs": [
        {
          "internalType": "uint256",
          "name": "",
          "type": "uint256"
        }
      ],
      "stateMutability": "view",
      "type": "function"
    },
    {
      "inputs": [
        {
          "internalType": "bool",
          "name": "_isAirdropPause",
          "type": "bool"
        }
      ],
      "name": "changeAirdropStatus",
      "outputs": [],
      "stateMutability": "nonpayable",
      "type": "function"
    },
    {
      "inputs": [],
      "name": "claimAirdrop",
      "outputs": [],
      "stateMutability": "nonpayable",
      "type": "function"
    },
    {
      "inputs": [],
      "name": "claimMonthlyRewards",
      "outputs": [],
      "stateMutability": "nonpayable",
      "type": "function"
    },
    {
      "inputs": [],
      "name": "claimWeeklyRewards",
      "outputs": [],
      "stateMutability": "nonpayable",
      "type": "function"
    },
    {
      "inputs": [
        {
          "internalType": "uint256",
          "name": "",
          "type": "uint256"
        }
      ],
      "name": "dailyBusiness",
      "outputs": [
        {
          "internalType": "uint256",
          "name": "volume",
          "type": "uint256"
        },
        {
          "internalType": "uint256",
          "name": "timestamp",
          "type": "uint256"
        }
      ],
      "stateMutability": "view",
      "type": "function"
    },
    {
      "inputs": [
        {
          "internalType": "address",
          "name": "_user",
          "type": "address"
        }
      ],
      "name": "getAirdropInfo",
      "outputs": [
        {
          "components": [
            {
              "internalType": "uint256",
              "name": "claimReward",
              "type": "uint256"
            },
            {
              "internalType": "uint256",
              "name": "avlReward",
              "type": "uint256"
            },
            {
              "internalType": "uint256",
              "name": "amount",
              "type": "uint256"
            },
            {
              "internalType": "uint256",
              "name": "withdrawnAmount",
              "type": "uint256"
            },
            {
              "internalType": "uint256",
              "name": "checkpoint",
              "type": "uint256"
            }
          ],
          "internalType": "struct Bull_BTC_Vault_Lite_01.Airdrop",
          "name": "",
          "type": "tuple"
        }
      ],
      "stateMutability": "view",
      "type": "function"
    },
    {
      "inputs": [
        {
          "internalType": "address",
          "name": "_user",
          "type": "address"
        }
      ],
      "name": "getAvStaking",
      "outputs": [
        {
          "internalType": "uint256",
          "name": "",
          "type": "uint256"
        }
      ],
      "stateMutability": "view",
      "type": "function"
    },
    {
      "inputs": [],
      "name": "getBussiness",
      "outputs": [
        {
          "internalType": "uint256",
          "name": "weeklyBus",
          "type": "uint256"
        },
        {
          "internalType": "uint256",
          "name": "monthlyBus",
          "type": "uint256"
        }
      ],
      "stateMutability": "view",
      "type": "function"
    },
    {
      "inputs": [
        {
          "internalType": "address",
          "name": "_user",
          "type": "address"
        }
      ],
      "name": "getLevelInfo",
      "outputs": [
        {
          "components": [
            {
              "internalType": "uint256",
              "name": "reward",
              "type": "uint256"
            },
            {
              "internalType": "uint256",
              "name": "amount",
              "type": "uint256"
            },
            {
              "internalType": "uint256",
              "name": "checkpoint",
              "type": "uint256"
            }
          ],
          "internalType": "struct Bull_BTC_Vault_Lite_01.AutoStake",
          "name": "",
          "type": "tuple"
        }
      ],
      "stateMutability": "view",
      "type": "function"
    },
    {
      "inputs": [
        {
          "internalType": "uint256",
          "name": "amountUsd",
          "type": "uint256"
        }
      ],
      "name": "getPriceFromUniswapV2",
      "outputs": [
        {
          "internalType": "uint256",
          "name": "",
          "type": "uint256"
        }
      ],
      "stateMutability": "view",
      "type": "function"
    },
    {
      "inputs": [
        {
          "internalType": "address",
          "name": "_address",
          "type": "address"
        },
        {
          "internalType": "uint256",
          "name": "_layer",
          "type": "uint256"
        }
      ],
      "name": "getTeamUsersLevelWise",
      "outputs": [
        {
          "internalType": "address[]",
          "name": "",
          "type": "address[]"
        }
      ],
      "stateMutability": "view",
      "type": "function"
    },
    {
      "inputs": [
        {
          "internalType": "address",
          "name": "_user",
          "type": "address"
        }
      ],
      "name": "getTotalTeam",
      "outputs": [
        {
          "internalType": "uint256",
          "name": "",
          "type": "uint256"
        },
        {
          "internalType": "uint256",
          "name": "",
          "type": "uint256"
        },
        {
          "internalType": "uint256",
          "name": "",
          "type": "uint256"
        }
      ],
      "stateMutability": "view",
      "type": "function"
    },
    {
      "inputs": [
        {
          "internalType": "address",
          "name": "_user",
          "type": "address"
        }
      ],
      "name": "getUserAirdropDividends",
      "outputs": [
        {
          "internalType": "uint256",
          "name": "",
          "type": "uint256"
        }
      ],
      "stateMutability": "view",
      "type": "function"
    },
    {
      "inputs": [
        {
          "internalType": "address",
          "name": "user",
          "type": "address"
        }
      ],
      "name": "getUserDirecttx",
      "outputs": [
        {
          "components": [
            {
              "internalType": "uint256",
              "name": "amount",
              "type": "uint256"
            },
            {
              "internalType": "uint256",
              "name": "timestamp",
              "type": "uint256"
            }
          ],
          "internalType": "struct Bull_BTC_Vault_Lite_01.Tr[]",
          "name": "",
          "type": "tuple[]"
        }
      ],
      "stateMutability": "view",
      "type": "function"
    },
    {
      "inputs": [
        {
          "internalType": "address",
          "name": "_user",
          "type": "address"
        }
      ],
      "name": "getUserDividends",
      "outputs": [
        {
          "internalType": "uint256",
          "name": "",
          "type": "uint256"
        }
      ],
      "stateMutability": "view",
      "type": "function"
    },
    {
      "inputs": [
        {
          "internalType": "address",
          "name": "_user",
          "type": "address"
        },
        {
          "internalType": "uint256",
          "name": "index",
          "type": "uint256"
        }
      ],
      "name": "getUserDividendsList",
      "outputs": [
        {
          "internalType": "uint256",
          "name": "",
          "type": "uint256"
        }
      ],
      "stateMutability": "view",
      "type": "function"
    },
    {
      "inputs": [
        {
          "internalType": "address",
          "name": "_user",
          "type": "address"
        }
      ],
      "name": "getUserLevelDivident",
      "outputs": [
        {
          "internalType": "uint256",
          "name": "",
          "type": "uint256"
        }
      ],
      "stateMutability": "view",
      "type": "function"
    },
    {
      "inputs": [
        {
          "internalType": "address",
          "name": "user",
          "type": "address"
        }
      ],
      "name": "getUserLevelWithdrawtx",
      "outputs": [
        {
          "components": [
            {
              "internalType": "uint256",
              "name": "amount",
              "type": "uint256"
            },
            {
              "internalType": "uint256",
              "name": "timestamp",
              "type": "uint256"
            }
          ],
          "internalType": "struct Bull_BTC_Vault_Lite_01.Tr[]",
          "name": "",
          "type": "tuple[]"
        }
      ],
      "stateMutability": "view",
      "type": "function"
    },
    {
      "inputs": [
        {
          "internalType": "address",
          "name": "user",
          "type": "address"
        }
      ],
      "name": "getUserLeveltx",
      "outputs": [
        {
          "components": [
            {
              "internalType": "uint256",
              "name": "amount",
              "type": "uint256"
            },
            {
              "internalType": "uint256",
              "name": "timestamp",
              "type": "uint256"
            }
          ],
          "internalType": "struct Bull_BTC_Vault_Lite_01.Tr[]",
          "name": "",
          "type": "tuple[]"
        }
      ],
      "stateMutability": "view",
      "type": "function"
    },
    {
      "inputs": [
        {
          "internalType": "address",
          "name": "user",
          "type": "address"
        }
      ],
      "name": "getUserMonthlyReward",
      "outputs": [
        {
          "components": [
            {
              "internalType": "uint256",
              "name": "amount",
              "type": "uint256"
            },
            {
              "internalType": "uint256",
              "name": "timestamp",
              "type": "uint256"
            }
          ],
          "internalType": "struct Bull_BTC_Vault_Lite_01.Tr[]",
          "name": "",
          "type": "tuple[]"
        }
      ],
      "stateMutability": "view",
      "type": "function"
    },
    {
      "inputs": [
        {
          "internalType": "address",
          "name": "user",
          "type": "address"
        },
        {
          "internalType": "uint256",
          "name": "index",
          "type": "uint256"
        }
      ],
      "name": "getUserStakingInfo",
      "outputs": [
        {
          "internalType": "uint256",
          "name": "ammount",
          "type": "uint256"
        },
        {
          "internalType": "uint256",
          "name": "startTime",
          "type": "uint256"
        },
        {
          "internalType": "uint256",
          "name": "share",
          "type": "uint256"
        }
      ],
      "stateMutability": "view",
      "type": "function"
    },
    {
      "inputs": [
        {
          "internalType": "address",
          "name": "user",
          "type": "address"
        }
      ],
      "name": "getUserStakingInfoCount",
      "outputs": [
        {
          "internalType": "uint256",
          "name": "",
          "type": "uint256"
        }
      ],
      "stateMutability": "view",
      "type": "function"
    },
    {
      "inputs": [
        {
          "internalType": "address",
          "name": "user",
          "type": "address"
        },
        {
          "internalType": "uint256",
          "name": "index",
          "type": "uint256"
        }
      ],
      "name": "getUserStakingStruct",
      "outputs": [
        {
          "components": [
            {
              "internalType": "uint256",
              "name": "amount",
              "type": "uint256"
            },
            {
              "internalType": "uint256",
              "name": "share",
              "type": "uint256"
            },
            {
              "internalType": "uint256",
              "name": "startTime",
              "type": "uint256"
            },
            {
              "internalType": "uint256",
              "name": "endTime",
              "type": "uint256"
            }
          ],
          "internalType": "struct Bull_BTC_Vault_Lite_01.Stake",
          "name": "",
          "type": "tuple"
        }
      ],
      "stateMutability": "view",
      "type": "function"
    },
    {
      "inputs": [
        {
          "internalType": "address",
          "name": "user",
          "type": "address"
        }
      ],
      "name": "getUserStakingWithdrawtx",
      "outputs": [
        {
          "components": [
            {
              "internalType": "uint256",
              "name": "amount",
              "type": "uint256"
            },
            {
              "internalType": "uint256",
              "name": "timestamp",
              "type": "uint256"
            }
          ],
          "internalType": "struct Bull_BTC_Vault_Lite_01.Tr[]",
          "name": "",
          "type": "tuple[]"
        }
      ],
      "stateMutability": "view",
      "type": "function"
    },
    {
      "inputs": [
        {
          "internalType": "address",
          "name": "user",
          "type": "address"
        }
      ],
      "name": "getUserStakingtx",
      "outputs": [
        {
          "components": [
            {
              "internalType": "uint256",
              "name": "amount",
              "type": "uint256"
            },
            {
              "internalType": "uint256",
              "name": "timestamp",
              "type": "uint256"
            }
          ],
          "internalType": "struct Bull_BTC_Vault_Lite_01.Tr[]",
          "name": "",
          "type": "tuple[]"
        }
      ],
      "stateMutability": "view",
      "type": "function"
    },
    {
      "inputs": [
        {
          "internalType": "address",
          "name": "user",
          "type": "address"
        }
      ],
      "name": "getUserWeeklyBussinessReward",
      "outputs": [
        {
          "components": [
            {
              "internalType": "uint256",
              "name": "amount",
              "type": "uint256"
            },
            {
              "internalType": "uint256",
              "name": "timestamp",
              "type": "uint256"
            }
          ],
          "internalType": "struct Bull_BTC_Vault_Lite_01.Tr[]",
          "name": "",
          "type": "tuple[]"
        }
      ],
      "stateMutability": "view",
      "type": "function"
    },
    {
      "inputs": [
        {
          "internalType": "address",
          "name": "user",
          "type": "address"
        }
      ],
      "name": "getUsersAirdroptx",
      "outputs": [
        {
          "components": [
            {
              "internalType": "uint256",
              "name": "amount",
              "type": "uint256"
            },
            {
              "internalType": "uint256",
              "name": "timestamp",
              "type": "uint256"
            }
          ],
          "internalType": "struct Bull_BTC_Vault_Lite_01.Tr[]",
          "name": "",
          "type": "tuple[]"
        }
      ],
      "stateMutability": "view",
      "type": "function"
    },
    {
      "inputs": [
        {
          "internalType": "uint256",
          "name": "",
          "type": "uint256"
        }
      ],
      "name": "idToAddress",
      "outputs": [
        {
          "internalType": "address",
          "name": "",
          "type": "address"
        }
      ],
      "stateMutability": "view",
      "type": "function"
    },
    {
      "inputs": [],
      "name": "isAirdropPaused",
      "outputs": [
        {
          "internalType": "bool",
          "name": "",
          "type": "bool"
        }
      ],
      "stateMutability": "view",
      "type": "function"
    },
    {
      "inputs": [
        {
          "internalType": "address",
          "name": "user",
          "type": "address"
        }
      ],
      "name": "isEligibleForMonthlyReward",
      "outputs": [
        {
          "internalType": "bool",
          "name": "",
          "type": "bool"
        }
      ],
      "stateMutability": "view",
      "type": "function"
    },
    {
      "inputs": [
        {
          "internalType": "address",
          "name": "user",
          "type": "address"
        }
      ],
      "name": "isEligibleForWeeklyReward",
      "outputs": [
        {
          "internalType": "bool",
          "name": "",
          "type": "bool"
        }
      ],
      "stateMutability": "view",
      "type": "function"
    },
    {
      "inputs": [
        {
          "internalType": "address",
          "name": "user",
          "type": "address"
        }
      ],
      "name": "isUserExists",
      "outputs": [
        {
          "internalType": "bool",
          "name": "",
          "type": "bool"
        }
      ],
      "stateMutability": "view",
      "type": "function"
    },
    {
      "inputs": [
        {
          "internalType": "address",
          "name": "",
          "type": "address"
        }
      ],
      "name": "isteamAchived",
      "outputs": [
        {
          "internalType": "bool",
          "name": "",
          "type": "bool"
        }
      ],
      "stateMutability": "view",
      "type": "function"
    },
    {
      "inputs": [],
      "name": "joiningFee",
      "outputs": [
        {
          "internalType": "uint256",
          "name": "",
          "type": "uint256"
        }
      ],
      "stateMutability": "view",
      "type": "function"
    },
    {
      "inputs": [],
      "name": "lastResetTimestamp",
      "outputs": [
        {
          "internalType": "uint256",
          "name": "",
          "type": "uint256"
        }
      ],
      "stateMutability": "view",
      "type": "function"
    },
    {
      "inputs": [],
      "name": "lastResetTimestampMonthly",
      "outputs": [
        {
          "internalType": "uint256",
          "name": "",
          "type": "uint256"
        }
      ],
      "stateMutability": "view",
      "type": "function"
    },
    {
      "inputs": [],
      "name": "lastUserId",
      "outputs": [
        {
          "internalType": "uint256",
          "name": "",
          "type": "uint256"
        }
      ],
      "stateMutability": "view",
      "type": "function"
    },
    {
      "inputs": [
        {
          "internalType": "uint256",
          "name": "",
          "type": "uint256"
        }
      ],
      "name": "levelBonusShares",
      "outputs": [
        {
          "internalType": "uint256",
          "name": "",
          "type": "uint256"
        }
      ],
      "stateMutability": "view",
      "type": "function"
    },
    {
      "inputs": [],
      "name": "levelRoiPerDay",
      "outputs": [
        {
          "internalType": "uint256",
          "name": "",
          "type": "uint256"
        }
      ],
      "stateMutability": "view",
      "type": "function"
    },
    {
      "inputs": [],
      "name": "maxStake",
      "outputs": [
        {
          "internalType": "uint256",
          "name": "",
          "type": "uint256"
        }
      ],
      "stateMutability": "view",
      "type": "function"
    },
    {
      "inputs": [],
      "name": "minStake",
      "outputs": [
        {
          "internalType": "uint256",
          "name": "",
          "type": "uint256"
        }
      ],
      "stateMutability": "view",
      "type": "function"
    },
    {
      "inputs": [],
      "name": "minWithdraw",
      "outputs": [
        {
          "internalType": "uint256",
          "name": "",
          "type": "uint256"
        }
      ],
      "stateMutability": "view",
      "type": "function"
    },
    {
      "inputs": [],
      "name": "monthlyBusiness",
      "outputs": [
        {
          "internalType": "uint256",
          "name": "",
          "type": "uint256"
        }
      ],
      "stateMutability": "view",
      "type": "function"
    },
    {
      "inputs": [],
      "name": "multipler",
      "outputs": [
        {
          "internalType": "uint256",
          "name": "",
          "type": "uint256"
        }
      ],
      "stateMutability": "view",
      "type": "function"
    },
    {
      "inputs": [],
      "name": "operator",
      "outputs": [
        {
          "internalType": "address",
          "name": "",
          "type": "address"
        }
      ],
      "stateMutability": "view",
      "type": "function"
    },
    {
      "inputs": [],
      "name": "owner",
      "outputs": [
        {
          "internalType": "address",
          "name": "",
          "type": "address"
        }
      ],
      "stateMutability": "view",
      "type": "function"
    },
    {
      "inputs": [],
      "name": "pause",
      "outputs": [],
      "stateMutability": "nonpayable",
      "type": "function"
    },
    {
      "inputs": [],
      "name": "paused",
      "outputs": [
        {
          "internalType": "bool",
          "name": "",
          "type": "bool"
        }
      ],
      "stateMutability": "view",
      "type": "function"
    },
    {
      "inputs": [
        {
          "internalType": "address",
          "name": "_user",
          "type": "address"
        },
        {
          "internalType": "address",
          "name": "_referral",
          "type": "address"
        }
      ],
      "name": "registration",
      "outputs": [],
      "stateMutability": "nonpayable",
      "type": "function"
    },
    {
      "inputs": [],
      "name": "renounceOwnership",
      "outputs": [],
      "stateMutability": "nonpayable",
      "type": "function"
    },
    {
      "inputs": [
        {
          "internalType": "address",
          "name": "",
          "type": "address"
        }
      ],
      "name": "rewardInfo",
      "outputs": [
        {
          "internalType": "uint256",
          "name": "stakingRewards",
          "type": "uint256"
        },
        {
          "internalType": "uint256",
          "name": "directRewards",
          "type": "uint256"
        },
        {
          "internalType": "uint256",
          "name": "levelRewards",
          "type": "uint256"
        },
        {
          "internalType": "uint256",
          "name": "totalRewards",
          "type": "uint256"
        },
        {
          "internalType": "uint256",
          "name": "withdrawnRewards",
          "type": "uint256"
        },
        {
          "internalType": "uint256",
          "name": "availableLevelRewards",
          "type": "uint256"
        },
        {
          "internalType": "uint256",
          "name": "availableStakingRewards",
          "type": "uint256"
        },
        {
          "internalType": "uint256",
          "name": "withdrawnLevelRewards",
          "type": "uint256"
        },
        {
          "internalType": "uint256",
          "name": "withdrawnStakeAmount",
          "type": "uint256"
        }
      ],
      "stateMutability": "view",
      "type": "function"
    },
    {
      "inputs": [],
      "name": "rewardPoolPercentage",
      "outputs": [
        {
          "internalType": "uint256",
          "name": "",
          "type": "uint256"
        }
      ],
      "stateMutability": "view",
      "type": "function"
    },
    {
      "inputs": [],
      "name": "roiPerDay",
      "outputs": [
        {
          "internalType": "uint256",
          "name": "",
          "type": "uint256"
        }
      ],
      "stateMutability": "view",
      "type": "function"
    },
    {
      "inputs": [],
      "name": "royaltyPoolPercentage",
      "outputs": [
        {
          "internalType": "uint256",
          "name": "",
          "type": "uint256"
        }
      ],
      "stateMutability": "view",
      "type": "function"
    },
    {
      "inputs": [
        {
          "internalType": "uint256",
          "name": "amountInUsd",
          "type": "uint256"
        }
      ],
      "name": "stake",
      "outputs": [],
      "stateMutability": "nonpayable",
      "type": "function"
    },
    {
      "inputs": [
        {
          "internalType": "uint256",
          "name": "usdtAmt",
          "type": "uint256"
        }
      ],
      "name": "swap",
      "outputs": [],
      "stateMutability": "nonpayable",
      "type": "function"
    },
    {
      "inputs": [
        {
          "internalType": "uint256",
          "name": "",
          "type": "uint256"
        }
      ],
      "name": "teamAchivers",
      "outputs": [
        {
          "internalType": "address",
          "name": "",
          "type": "address"
        }
      ],
      "stateMutability": "view",
      "type": "function"
    },
    {
      "inputs": [
        {
          "internalType": "address",
          "name": "",
          "type": "address"
        },
        {
          "internalType": "uint256",
          "name": "",
          "type": "uint256"
        },
        {
          "internalType": "uint256",
          "name": "",
          "type": "uint256"
        }
      ],
      "name": "teamUsers",
      "outputs": [
        {
          "internalType": "address",
          "name": "",
          "type": "address"
        }
      ],
      "stateMutability": "view",
      "type": "function"
    },
    {
      "inputs": [],
      "name": "totalEligibleUsersMonthly",
      "outputs": [
        {
          "internalType": "uint256",
          "name": "",
          "type": "uint256"
        }
      ],
      "stateMutability": "view",
      "type": "function"
    },
    {
      "inputs": [],
      "name": "totalEligibleUsersWeekly",
      "outputs": [
        {
          "internalType": "uint256",
          "name": "",
          "type": "uint256"
        }
      ],
      "stateMutability": "view",
      "type": "function"
    },
    {
      "inputs": [],
      "name": "totalStaked",
      "outputs": [
        {
          "internalType": "uint256",
          "name": "",
          "type": "uint256"
        }
      ],
      "stateMutability": "view",
      "type": "function"
    },
    {
      "inputs": [],
      "name": "totalWithdrawal",
      "outputs": [
        {
          "internalType": "uint256",
          "name": "",
          "type": "uint256"
        }
      ],
      "stateMutability": "view",
      "type": "function"
    },
    {
      "inputs": [
        {
          "internalType": "address",
          "name": "newOwner",
          "type": "address"
        }
      ],
      "name": "transferOwnership",
      "outputs": [],
      "stateMutability": "nonpayable",
      "type": "function"
    },
    {
      "inputs": [],
      "name": "uniswapRouter",
      "outputs": [
        {
          "internalType": "contract IUniswapV2Router02",
          "name": "",
          "type": "address"
        }
      ],
      "stateMutability": "view",
      "type": "function"
    },
    {
      "inputs": [],
      "name": "unpause",
      "outputs": [],
      "stateMutability": "nonpayable",
      "type": "function"
    },
    {
      "inputs": [
        {
          "internalType": "address",
          "name": "_user",
          "type": "address"
        }
      ],
      "name": "updateAirdropReward",
      "outputs": [],
      "stateMutability": "nonpayable",
      "type": "function"
    },
    {
      "inputs": [
        {
          "internalType": "address",
          "name": "_user",
          "type": "address"
        }
      ],
      "name": "updateReward",
      "outputs": [],
      "stateMutability": "nonpayable",
      "type": "function"
    },
    {
      "inputs": [
        {
          "internalType": "address",
          "name": "",
          "type": "address"
        }
      ],
      "name": "userTeams",
      "outputs": [
        {
          "internalType": "uint256",
          "name": "directConnections",
          "type": "uint256"
        },
        {
          "internalType": "uint256",
          "name": "totalConnections",
          "type": "uint256"
        },
        {
          "internalType": "uint256",
          "name": "otherLegsCount",
          "type": "uint256"
        },
        {
          "internalType": "uint256",
          "name": "strongLegCount",
          "type": "uint256"
        },
        {
          "internalType": "uint256",
          "name": "teamNum",
          "type": "uint256"
        }
      ],
      "stateMutability": "view",
      "type": "function"
    },
    {
      "inputs": [
        {
          "internalType": "address",
          "name": "",
          "type": "address"
        }
      ],
      "name": "users",
      "outputs": [
        {
          "internalType": "uint256",
          "name": "userId",
          "type": "uint256"
        },
        {
          "internalType": "address",
          "name": "referrer",
          "type": "address"
        },
        {
          "internalType": "uint256",
          "name": "partnerCount",
          "type": "uint256"
        },
        {
          "internalType": "uint256",
          "name": "totalStake",
          "type": "uint256"
        },
        {
          "internalType": "uint256",
          "name": "directBusiness",
          "type": "uint256"
        },
        {
          "internalType": "uint256",
          "name": "teamBusiness",
          "type": "uint256"
        },
        {
          "internalType": "uint256",
          "name": "rewardLimit",
          "type": "uint256"
        },
        {
          "internalType": "uint256",
          "name": "checkpoint",
          "type": "uint256"
        },
        {
          "components": [
            {
              "internalType": "uint256",
              "name": "claimReward",
              "type": "uint256"
            },
            {
              "internalType": "uint256",
              "name": "avlReward",
              "type": "uint256"
            },
            {
              "internalType": "uint256",
              "name": "amount",
              "type": "uint256"
            },
            {
              "internalType": "uint256",
              "name": "withdrawnAmount",
              "type": "uint256"
            },
            {
              "internalType": "uint256",
              "name": "checkpoint",
              "type": "uint256"
            }
          ],
          "internalType": "struct Bull_BTC_Vault_Lite_01.Airdrop",
          "name": "airdrop",
          "type": "tuple"
        },
        {
          "components": [
            {
              "internalType": "uint256",
              "name": "reward",
              "type": "uint256"
            },
            {
              "internalType": "uint256",
              "name": "amount",
              "type": "uint256"
            },
            {
              "internalType": "uint256",
              "name": "checkpoint",
              "type": "uint256"
            }
          ],
          "internalType": "struct Bull_BTC_Vault_Lite_01.AutoStake",
          "name": "autostake",
          "type": "tuple"
        },
        {
          "internalType": "bool",
          "name": "hasReceivedWeeklyReward",
          "type": "bool"
        },
        {
          "internalType": "enum Bull_BTC_Vault_Lite_01.Rank",
          "name": "rank",
          "type": "uint8"
        },
        {
          "internalType": "uint256",
          "name": "firstStakeTime",
          "type": "uint256"
        }
      ],
      "stateMutability": "view",
      "type": "function"
    },
    {
      "inputs": [
        {
          "internalType": "address",
          "name": "",
          "type": "address"
        }
      ],
      "name": "usersCount",
      "outputs": [
        {
          "internalType": "bool",
          "name": "monthlyrecorded",
          "type": "bool"
        },
        {
          "internalType": "bool",
          "name": "weeklyrecorded",
          "type": "bool"
        }
      ],
      "stateMutability": "view",
      "type": "function"
    },
    {
      "inputs": [],
      "name": "weeklyBusiness",
      "outputs": [
        {
          "internalType": "uint256",
          "name": "",
          "type": "uint256"
        }
      ],
      "stateMutability": "view",
      "type": "function"
    },
    {
      "inputs": [],
      "name": "withdrawLevel",
      "outputs": [],
      "stateMutability": "nonpayable",
      "type": "function"
    },
    {
      "inputs": [],
      "name": "withdrawStaking",
      "outputs": [],
      "stateMutability": "nonpayable",
      "type": "function"
    },
    {
      "inputs": [
        {
          "internalType": "address",
          "name": "",
          "type": "address"
        }
      ],
      "name": "wmRewards",
      "outputs": [
        {
          "internalType": "uint256",
          "name": "weeklyamount",
          "type": "uint256"
        },
        {
          "internalType": "uint256",
          "name": "monthlyamount",
          "type": "uint256"
        },
        {
          "internalType": "uint256",
          "name": "weeklyclaimed",
          "type": "uint256"
        },
        {
          "internalType": "uint256",
          "name": "monthlyclaimed",
          "type": "uint256"
        }
      ],
      "stateMutability": "view",
      "type": "function"
    }
  ],
  "bytecode": "0x6080604052600560105560056014556000602d556000602e556000602f5560006030553480156200002f57600080fd5b506040516200610c3803806200610c83398101604081905262000052916200044b565b601680546001600160a01b038089166001600160a01b03199283161790925560178054928816929091169190911790556200008d3362000363565b601580546001600160a01b0386166001600160a01b031991821617909155602c805490911673d99d1c33f9fc3444f8101754abc46c52416550d1179055604080516101408101825261012c815260966020820152605a918101829052603c60608201819052601e608083015260a0820181905260c0820181905260e082015261010081018290526101208101919091526200012d90602a90600a620003c1565b506802b5e3af16b1880000601d5569021e19e0c9bab2400000601e5560056019819055601855674563918244f4000060215568056bc75e2d631000006020908155678ac7230489e80000601b819055601c556002601a556000600d819055600e819055602b8054600181810183557f11c44e4875b74d31ff9fd779bf2566af7bd15b87fc985d01f5094b89e3669e4f91820180546001600160a01b03808b166001600160a01b0319928316811790935591865260039096526040808620805460ff19908116851790915585548085018755850180548b8516908a1681179091558752818720805482168517905585548085019096559490930180549188169190961681179095559383529091208054821683179055600a602755610258602355611c206024556103e86026556022805490911690556025556200027943670de0b6b3a7640000620004e2565b6001600160a01b03851660009081526004602052604081206009018054909190620002a690849062000502565b9091555050602580546001600160a01b03861660008181526004602090815260408083209485556011909401805461ff001916610400179055845482526006905291822080546001600160a01b0319169091179055815491906200030a8362000518565b90915550506040805160018152600060208201819052916001600160a01b038716917f309bb360e8b69c23937ccc5fb01f9aeeead1c95a99604e175113ff82f2b1723a910160405180910390a350505050505062000534565b6200036e8162000371565b50565b600080546001600160a01b038381166001600160a01b0319831681178455604051919092169283917f8be0079c531659141344cd1fd0a4f28419497f9722a3daafe3b4186f6b6457e09190a35050565b82805482825590600052602060002090810192821562000405579160200282015b8281111562000405578251829061ffff16905591602001919060010190620003e2565b506200041392915062000417565b5090565b5b8082111562000413576000815560010162000418565b80516001600160a01b03811681146200044657600080fd5b919050565b60008060008060008060c087890312156200046557600080fd5b62000470876200042e565b955062000480602088016200042e565b945062000490604088016200042e565b9350620004a0606088016200042e565b9250620004b0608088016200042e565b9150620004c060a088016200042e565b90509295509295509295565b634e487b7160e01b600052601160045260246000fd5b8082028115828204841417620004fc57620004fc620004cc565b92915050565b80820180821115620004fc57620004fc620004cc565b6000600182016200052d576200052d620004cc565b5060010190565b615bc880620005446000396000f3fe608060405234801561001057600080fd5b50600436106103eb5760003560e01c80637a4425861161020d578063b8764da211610121578063b8764da214610a07578063bea515e314610a0f578063bfff1e3114610a55578063c54e44eb14610a68578063ca33fa3f14610a7b578063cbecf6b514610a88578063cc3d272114610b28578063ccb73d6014610b31578063cd716fcf14610b44578063d0f6853f14610b57578063d2c8b99f14610b6a578063d8a04dfa14610b7d578063dc43f0e614610b86578063dcee7fe314610b8f578063e5052da514610b97578063ea1b28e014610ba0578063ea589a4014610ba9578063f2fde38b14610bc9578063f67e0a9814610bdc578063fa2878b914610bef578063fc2ea8a514610c1257600080fd5b80637a4425861461073e5780637e9da19614610751578063817b1cd21461075a57806382f4c6a6146107635780638456cb5914610776578063861413671461077e578063899da10e146107ac5780638da5cb5b146107bf57806394b918de146107c757806395dc7c7f146107da578063978fea941461083f57806399f584b314610852578063a694fc3a1461085b578063a87430ba1461086e578063ac55fd0d14610964578063adf3364c146109a7578063b343a0df146109ba578063b5b159a4146109c3578063b6b206dd146109cb578063b7b847df146109de578063b85cf54e146109fe57600080fd5b806346ca084a1161030457806346ca084a146105955780634858116c146105a85780634e7e2fe8146105b0578063509222cd14610605578063570ca735146106285780635b88349d1461063b5780635c975abb14610643578063632447c91461064b578063634abc111461065e578063664119011461066757806368079018146106935780636b56ee021461069c5780636b58222e146106a55780636b6be453146106c55780636d03773c146106d85780636d8c47bc146106eb5780636eeeaaa5146106fe578063715018a614610707578063735de9f71461070f57806373cb4d05146107225780637952cda91461073557600080fd5b80629bf5ba146103f057806302a2089e1461040c578063040a772e146104155780630da5a1b7146104285780631a454b92146104315780631eeca6df146104445780631fac844214610470578063207fee471461049057806324cbd2f2146104ac5780632984f1bf146104bf57806329fc7bd8146104e65780632a2d0c47146104ef5780632dd4f9b0146105255780632e7a7c881461052e57806332bc298c14610541578063348d44871461054a578063375b3c0a14610553578063383143e51461055c5780633a2f2d85146105655780633be515ef146105785780633f4ba83a1461058b575b600080fd5b6103f9600e5481565b6040519081526020015b60405180910390f35b6103f960145481565b6103f961042336600461558e565b610c1b565b6103f9601f5481565b6103f961043f3660046155b0565b610c69565b6103f961045236600461558e565b6001600160a01b031660009081526004602052604090206010015490565b61048361047e36600461558e565b610d8e565b60405161040391906155c9565b600f546012545b60408051928352602083019190915201610403565b6104836104ba36600461558e565b610e1a565b6104976104cd3660046155b0565b6009602052600090815260409020805460019091015482565b6103f960265481565b6105186104fd3660046155b0565b6006602052600090815260409020546001600160a01b031681565b6040516104039190615618565b6103f960275481565b601754610518906001600160a01b031681565b6103f960235481565b6103f960255481565b6103f9601d5481565b6103f960215481565b6103f961057336600461558e565b610e95565b61048361058636600461558e565b610fad565b610593611028565b005b6105936105a336600461562c565b611065565b610593611633565b6105e56105be36600461558e565b60086020526000908152604090208054600182015460028301546003909301549192909184565b604080519485526020850193909352918301526060820152608001610403565b61061861061336600461558e565b6118a8565b6040519015158152602001610403565b601554610518906001600160a01b031681565b6105936118c5565b610618611acb565b61059361065936600461558e565b611adb565b6103f960245481565b6103f961067536600461558e565b6001600160a01b031660009081526007602052604090206006015490565b6103f960125481565b6103f960295481565b6106b86106b336600461558e565b611af6565b604051610403919061568f565b6104836106d336600461558e565b611b83565b6103f96106e636600461558e565b611c01565b6106186106f936600461558e565b611c9b565b6103f9601c5481565b610593611d8b565b602c54610518906001600160a01b031681565b61051861073036600461569d565b611d9d565b6103f960135481565b6103f961074c3660046156d0565b611de2565b6103f9600d5481565b6103f960285481565b6103f96107713660046155b0565b611edb565b610593611efc565b61079161078c36600461558e565b611f37565b60408051938452602084019290925290820152606001610403565b6104836107ba36600461558e565b612017565b610518612095565b6105936107d53660046155b0565b6120a4565b6108176107e836600461558e565b600260208190526000918252604090912080546001820154928201546003830154600490930154919392909185565b604080519586526020860194909452928401919091526060830152608082015260a001610403565b61059361084d36600461558e565b61226b565b6103f9601a5481565b6105936108693660046155b0565b612366565b61094b61087c36600461558e565b6004602081815260009283526040928390208054600182015460028301546003840154958401546005850154600686015460078701548a5160a081018c52600889015481526009890154818b0152600a890154818d0152600b890154606080830191909152600c8a015460808301528c519081018d52600d8a01548152600e8a01549a81019a909a52600f8901549b8a019b909b526011880154601290980154969a6001600160a01b03909616999498949793969295919490939192909160ff8082169261010090920416908d565b6040516104039d9c9b9a99989796959493929190615729565b61099061097236600461558e565b60056020526000908152604090205460ff8082169161010090041682565b604080519215158352901515602083015201610403565b6105936109b53660046157d8565b612bc7565b6103f960115481565b610593612c0d565b6104836109d936600461558e565b612fae565b6109f16109ec3660046156d0565b613029565b604051610403919061583a565b6103f960105481565b6105936130a8565b610a22610a1d3660046156d0565b61329f565b60405161040391908151815260208083015190820152604080830151908201526060918201519181019190915260800190565b610518610a633660046155b0565b613340565b601654610518906001600160a01b031681565b6022546106189060ff1681565b610ae4610a9636600461558e565b60076020528060005260406000206000915090508060000154908060010154908060020154908060030154908060040154908060050154908060060154908060070154908060080154905089565b60408051998a5260208a0198909852968801959095526060870193909352608086019190915260a085015260c084015260e083015261010082015261012001610403565b6103f9601b5481565b610618610b3f36600461558e565b61336a565b6103f9610b5236600461558e565b6134ff565b610791610b653660046156d0565b61359e565b610483610b7836600461558e565b6136c5565b6103f960185481565b6103f960195481565b610593613743565b6103f9600f5481565b6103f9601e5481565b610bbc610bb736600461558e565b613aac565b604051610403919061584d565b610593610bd736600461558e565b613b15565b610483610bea36600461558e565b613b8b565b610618610bfd36600461558e565b60036020526000908152604090205460ff1681565b6103f960205481565b60008060005b6001600160a01b038416600090815260046020526040902060100154811015610c6257610c4e8482611de2565b610c589083615871565b9150600101610c21565b5092915050565b60408051600280825260608201835260009283929190602083019080368337505060165482519293506001600160a01b031691839150600090610cae57610cae61589a565b6001600160a01b039283166020918202929092010152601754825191169082906001908110610cdf57610cdf61589a565b6001600160a01b039283166020918202929092010152602c5460405163d06ca61f60e01b8152600092919091169063d06ca61f90610d2390879086906004016158b0565b600060405180830381865afa158015610d40573d6000803e3d6000fd5b505050506040513d6000823e601f3d908101601f19168201604052610d6891908101906158d1565b905080600181518110610d7d57610d7d61589a565b602002602001015192505050919050565b6001600160a01b0381166000908152600b60209081526040808320600201805482518185028101850190935280835260609492939192909184015b82821015610e0f57838290600052602060002090600202016040518060400160405290816000820154815260200160018201548152505081526020019060010190610dc9565b505050509050919050565b6001600160a01b0381166000908152600c60209081526040808320805482518185028101850190935280835260609492939192909184018215610e0f57838290600052602060002090600202016040518060400160405290816000820154815260200160018201548152505081526020019060010190610dc9565b6015546000906001600160a01b0390811690831603610eb657506000919050565b6001600160a01b0382166000908152600460205260409020600a8101546008909101906802b5e3af16b18800001115610f365760405162461bcd60e51b815260206004820152601e60248201527f4d696e696d756d207374616b696e6720616d6f756e74206e6f74206d6574000060448201526064015b60405180910390fd5b60048101548042600081831015610f6e57602454610f548484615983565b602154610f619190615996565b610f6b91906159ad565b90505b8454602054600091610f7f91615983565b905080821115610f8d578091505b602154821115610f9d5760215491505b509695505050505050565b919050565b6001600160a01b0381166000908152600b60209081526040808320805482518185028101850190935280835260609492939192909184018215610e0f57838290600052602060002090600202016040518060400160405290816000820154815260200160018201548152505081526020019060010190610dc9565b6015546001600160a01b0316336001600160a01b03161461105b5760405162461bcd60e51b8152600401610f2d906159cf565b611063613c09565b565b61106e826118a8565b156110aa5760405162461bcd60e51b815260206004820152600c60248201526b55736572204578697374732160a01b6044820152606401610f2d565b6110b3816118a8565b6110f65760405162461bcd60e51b81526020600482015260146024820152735265666572726572206e6f74204578697374732160601b6044820152606401610f2d565b601c546016546001600160a01b031663dd62ed3e33306040518363ffffffff1660e01b81526004016111299291906159eb565b602060405180830381865afa158015611146573d6000803e3d6000fd5b505050506040513d601f19601f8201168201806040525081019061116a9190615a05565b10156111a55760405162461bcd60e51b815260206004820152600a602482015269020b63637bbb0b731b2960b51b6044820152606401610f2d565b601654601c546040516323b872dd60e01b81526001600160a01b03909216916323b872dd916111da9133913091600401615a1e565b6020604051808303816000875af11580156111f9573d6000803e3d6000fd5b505050506040513d601f19601f8201168201806040525081019061121d9190615a42565b50601654602c54601c5460405163095ea7b360e01b81526001600160a01b039384169363095ea7b39361125593911691600401615a5f565b6020604051808303816000875af1158015611274573d6000803e3d6000fd5b505050506040513d601f19601f820116820180604052508101906112989190615a42565b50604080516002808252606082018352600092602083019080368337505060165482519293506001600160a01b0316918391506000906112da576112da61589a565b6001600160a01b03928316602091820292909201015260175482519116908290600190811061130b5761130b61589a565b6001600160a01b039283166020918202929092010152602c54601c5460405163d06ca61f60e01b8152600093929092169163d06ca61f916113509186906004016158b0565b600060405180830381865afa15801561136d573d6000803e3d6000fd5b505050506040513d6000823e601f3d908101601f1916820160405261139591908101906158d1565b602c54601c5482519293506001600160a01b03909116916338ed17399190849060019081106113c6576113c661589a565b6020026020010151853042600a6113dd9190615871565b6040518663ffffffff1660e01b81526004016113fd959493929190615a78565b6000604051808303816000875af115801561141c573d6000803e3d6000fd5b505050506040513d6000823e601f3d908101601f1916820160405261144491908101906158d1565b50602580546001600160a01b03868116600081815260046020818152604080842087815596845260068252832080546001600160a01b031990811686179091559383525260019093018054909116918716919091179055815491906114a883615ab4565b90915550506001600160a01b03831660009081526004602052604081206002018054916114d483615ab4565b91905055506114e284613c58565b6114eb84613d47565b6114f484613dcd565b6001600160a01b03848116600081815260046020526040808220549387168083529181902054905191937f309bb360e8b69c23937ccc5fb01f9aeeead1c95a99604e175113ff82f2b1723a926115539290918252602082015260400190565b60405180910390a360225460ff1661160557602080546001600160a01b0386166000908152600490925260408220600a01805491929091611595908490615871565b90915550506001600160a01b03841660008181526004602090815260409182902042600c90910155805491519182527ff4c939440c6d14913815abe76e86be3cdd735082d11dee9f56f14dc086d225b0910160405180910390a2601f80549060006115ff83615ab4565b91905055505b6001600160a01b038085166000908152600460205260409020600101541661162c81613dcd565b5050505050565b33600090815260086020908152604080832060049092529091206011015460ff1615801561166357506002810154155b801561166f5750805415155b6116b85760405162461bcd60e51b815260206004820152601a6024820152794e6f207765656b6c79207265776172647320746f20636c61696d60301b6044820152606401610f2d565b6116c13361336a565b156118a55760006064601054602d546116da9190615996565b6116e491906159ad565b90506000600d54826116f691906159ad565b9050600061170382610c69565b336000818152600860205260409081902083905551919250907fa4c898e193f9b90ee1075eb2dc37474589a0bb45bb6307b47ba6d456b00010e89061176990848152604060208201819052600690820152657765656b6c7960d01b606082015260800190565b60405180910390a2336000908152600460205260408120601101805460ff191660011790558454600286018054919283926117a5908490615871565b909155505060175460405163a9059cbb60e01b81526001600160a01b039091169063a9059cbb906117dc9033908590600401615a5f565b6020604051808303816000875af11580156117fb573d6000803e3d6000fd5b505050506040513d601f19601f8201168201806040525081019061181f9190615a42565b61183b5760405162461bcd60e51b8152600401610f2d90615acd565b336000908152600c602090815260408083208151808301909252868252818301858152600191820180548084018255908652939094209151600290930290910191825591519101555050336000908152600460205260409020601101805460ff1916600117905550505b50565b6001600160a01b0316600090815260046020526040902054151590565b601d5433600090815260046020526040902060030154101561191a5760405162461bcd60e51b815260206004820152600e60248201526d6d696e207374616b65202435302160901b6044820152606401610f2d565b6119233361226b565b33600090815260046020526040902060090154601b548110156119715760405162461bcd60e51b815260206004820152600660248201526504d696e2031360d41b6044820152606401610f2d565b600061197c82610c69565b336000818152600460208181526040808420600901849055600b8252808420815180830183528981524281850190815260029283018054600180820183559189529590972091519490920201928355519190930155601754915163a9059cbb60e01b81529394506001600160a01b039091169263a9059cbb92611a03929091869101615a5f565b6020604051808303816000875af1158015611a22573d6000803e3d6000fd5b505050506040513d601f19601f82011682018060405250810190611a469190615a42565b611a7c5760405162461bcd60e51b8152602060048201526007602482015266151c8819985a5b60ca1b6044820152606401610f2d565b604080518281526020810184905233917f6dc4a37fa5b018cedd725a06298e6a03f4280bd1a1a38516137d1a9395fd8c48910160405180910390a2611abf613fe6565b611ac761409a565b5050565b600054600160a01b900460ff1690565b611ae48161414e565b611aed81614291565b6118a58161226b565b611b286040518060a0016040528060008152602001600081526020016000815260200160008152602001600081525090565b506001600160a01b0316600090815260046020908152604091829020825160a08101845260088201548152600982015492810192909252600a81015492820192909252600b8201546060820152600c90910154608082015290565b6001600160a01b0381166000908152600c60209081526040808320600101805482518185028101850190935280835260609492939192909184018215610e0f57838290600052602060002090600202016040518060400160405290816000820154815260200160018201548152505081526020019060010190610dc9565b6001600160a01b0381166000908152600460205260408120600f810154602654601854600e8401548594600d01939285929091611c3e9190615996565b611c4891906159ad565b9050814280821015611c7857602354611c618383615983565b611c6b9085615996565b611c7591906159ad565b95505b84600101548611611c895785611c8f565b84600101545b98975050505050505050565b6015546000906001600160a01b0390811690831603611cbc57506001919050565b60046001600160a01b038316600090815260046020819052604090912060110154610100900460ff1690811115611cf557611cf5615713565b14611d0257506000919050565b6000805b6001600160a01b038416600090815260046020526040902060020154811015611d80576001600160a01b0380851660009081526004602052604081206001015490911690611d5582600a614481565b90506969e10de76676d08000008110611d765783611d7281615ab4565b9450505b5050600101611d06565b506002111592915050565b611d93614584565b61106360006145e3565b60016020528260005260406000206020528160005260406000208181548110611dc557600080fd5b6000918252602090912001546001600160a01b0316925083915050565b6001600160a01b038216600090815260046020526040812060100180548291829185908110611e1357611e1361589a565b6000918252602080832060049283020160038101546001600160a01b038a168552929091526040909220600701549192509081811015611ece576026546001840154845460009291611e6491615996565b611e6e91906159ad565b9050600082856002015411611e835782611e89565b84600201545b90506000428510611e9a5742611e9c565b845b905080821015611eca57602354611eb38383615983565b611ebd9085615996565b611ec791906159ad565b96505b5050505b5091925050505b92915050565b602a8181548110611eeb57600080fd5b600091825260209091200154905081565b6015546001600160a01b0316336001600160a01b031614611f2f5760405162461bcd60e51b8152600401610f2d906159cf565b611063614633565b60008060008060008060005b6001600160a01b0388166000908152600160209081526040808320838052909152902054811015611ffe576001600160a01b038816600090815260016020908152604080832083805290915281208054600291839185908110611fa857611fa861589a565b60009182526020808320909101546001600160a01b03168352820192909252604001902060040154611fdb906001615871565b9050611fe78186615871565b945083811115611ff5578093505b50600101611f43565b506120098284615983565b929791965091945092505050565b6001600160a01b0381166000908152600a60209081526040808320600101805482518185028101850190935280835260609492939192909184018215610e0f57838290600052602060002090600202016040518060400160405290816000820154815260200160018201548152505081526020019060010190610dc9565b6000546001600160a01b031690565b6015546001600160a01b0316336001600160a01b0316146120d75760405162461bcd60e51b8152600401610f2d906159cf565b60006120e282610c69565b601654602c5460405163095ea7b360e01b81529293506001600160a01b039182169263095ea7b39261211a9216908690600401615a5f565b6020604051808303816000875af1158015612139573d6000803e3d6000fd5b505050506040513d601f19601f8201168201806040525081019061215d9190615a42565b50604080516002808252606082018352600092602083019080368337505060165482519293506001600160a01b03169183915060009061219f5761219f61589a565b6001600160a01b0392831660209182029290920101526017548251911690829060019081106121d0576121d061589a565b6001600160a01b039283166020918202929092010152602c54166338ed1739848484306121fe426064615871565b6040518663ffffffff1660e01b815260040161221e959493929190615a78565b6000604051808303816000875af115801561223d573d6000803e3d6000fd5b505050506040513d6000823e601f3d908101601f1916820160405261226591908101906158d1565b50505050565b600061227682610e95565b6001600160a01b038316600090815260046020526040812042600c820155600901805492935083929091906122ac908490615871565b90915550506001600160a01b0382166000908152600460205260408120600a0180548392906122dc908490615983565b90915550506001600160a01b0382166000908152600460205260408120600801805483929061230c908490615871565b90915550506001600160a01b03821660009081526004602052604090206008015468056bc75e2d6310000011611ac757506001600160a01b0316600090815260046020526040902068056bc75e2d63100000600890910155565b61236e614676565b601d5481101580156123825750601e548111155b6123c45760405162461bcd60e51b8152602060048201526013602482015272696e76616c69642075736420616d6f756e742160681b6044820152606401610f2d565b6123cd336118a8565b6124105760405162461bcd60e51b815260206004820152601460248201527355736572206e6f7420726567697374657265642160601b6044820152606401610f2d565b601654604051636eb1769f60e11b815282916001600160a01b03169063dd62ed3e9061244290339030906004016159eb565b602060405180830381865afa15801561245f573d6000803e3d6000fd5b505050506040513d601f19601f820116820180604052508101906124839190615a05565b10156124c45760405162461bcd60e51b815260206004820152601060248201526f616c6c6f776e616365206572726f722160801b6044820152606401610f2d565b6016546040516370a0823160e01b815282916001600160a01b0316906370a08231906124f4903390600401615618565b602060405180830381865afa158015612511573d6000803e3d6000fd5b505050506040513d601f19601f820116820180604052508101906125359190615a05565b10156125745760405162461bcd60e51b815260206004820152600e60248201526d62616c616e6365206572726f722160901b6044820152606401610f2d565b60006064612583836046615996565b61258d91906159ad565b9050600061259a82610c69565b6016546040516323b872dd60e01b81529192506001600160a01b0316906323b872dd906125cf90339030908890600401615a1e565b6020604051808303816000875af11580156125ee573d6000803e3d6000fd5b505050506040513d601f19601f820116820180604052508101906126129190615a42565b61262e5760405162461bcd60e51b8152600401610f2d90615acd565b601654602c5460405163095ea7b360e01b81526001600160a01b039283169263095ea7b392612664929116908690600401615a5f565b6020604051808303816000875af1158015612683573d6000803e3d6000fd5b505050506040513d601f19601f820116820180604052508101906126a79190615a42565b50604080516002808252606082018352600092602083019080368337505060165482519293506001600160a01b0316918391506000906126e9576126e961589a565b6001600160a01b03928316602091820292909201015260175482519116908290600190811061271a5761271a61589a565b6001600160a01b039283166020918202929092010152602c54166338ed173984848430612748426064615871565b6040518663ffffffff1660e01b8152600401612768959493929190615a78565b6000604051808303816000875af1158015612787573d6000803e3d6000fd5b505050506040513d6000823e601f3d908101601f191682016040526127af91908101906158d1565b5033600090815260046020526040812060030180548692906127d2908490615871565b9091555050601a546127e49085615996565b3360009081526004602052604081206006018054909190612806908490615871565b90915550503360009081526004602052604090819020815160808101909252601a5460109091019190819061283b9088615996565b8152602001601954815260200142815260200160235460c861285d9190615996565b6128679042615871565b90528154600180820184556000938452602080852084516004909402019283558381015183830155604080850151600280860191909155606090950151600390940193909355338552600a81528285208351808501909452898452428483019081528154808501835591875291909520925194909302909101928355905191015533600090815260046020526040812060010154602880546001600160a01b03909216928792612918908490615871565b9091555050604080518681526020810185905233917fdff337cb9391afcb2d9f75325f4ca9bd37b2e2283d31612b9fa189d7fca853ec910160405180910390a26129633382876146b4565b61296e3386836149c2565b602b5415612adb5760006064612985876005615996565b61298f91906159ad565b602b549091506000906129a290836159ad565b905060005b602b54811015612ad757601654602b80546001600160a01b039092169163a9059cbb9190849081106129db576129db61589a565b6000918252602090912001546040516001600160e01b031960e084901b168152612a13916001600160a01b0316908690600401615a5f565b6020604051808303816000875af1158015612a32573d6000803e3d6000fd5b505050506040513d601f19601f82011682018060405250810190612a569190615a42565b612a725760405162461bcd60e51b8152600401610f2d90615acd565b602b8181548110612a8557612a8561589a565b600091825260209182902001546040518481526001600160a01b03909116917f4cc134958cc1ecb31831b0fa167f44fbcfbda002d73120e7a8904ed796579ca9910160405180910390a26001016129a7565b5050505b612ae485615344565b612aed856153da565b612af5613fe6565b612afd61409a565b612b0633611adb565b612b0f3361336a565b8015612b30575033600090815260056020526040902054610100900460ff16155b15612b6757600d8054906000612b4583615ab4565b9091555050336000908152600560205260409020805461ff0019166101001790555b612b7033611c9b565b8015612b8c57503360009081526005602052604090205460ff16155b1561162c57600e8054906000612ba183615ab4565b9091555050336000908152600560205260409020805460ff191660011790555050505050565b6015546001600160a01b0316336001600160a01b031614612bfa5760405162461bcd60e51b8152600401610f2d906159cf565b6022805460ff1916911515919091179055565b612c163361414e565b33600090815260076020526040902060050154601b54811015612c4b5760405162461bcd60e51b8152600401610f2d90615aee565b6000612c56336134ff565b9050818110612e1957336000908152600760205260408120600581018290556004018054849290612c88908490615871565b90915550503360009081526007602052604081206003018054849290612caf908490615871565b90915550503360009081526007602081905260408220018054849290612cd6908490615871565b925050819055508160296000828254612cef9190615871565b9091555060009050612d0083610c69565b60175460405163a9059cbb60e01b81529192506001600160a01b03169063a9059cbb90612d339033908590600401615a5f565b6020604051808303816000875af1158015612d52573d6000803e3d6000fd5b505050506040513d601f19601f82011682018060405250810190612d769190615a42565b612d925760405162461bcd60e51b8152600401610f2d90615acd565b612dea335b6001600160a01b03166000908152600b6020908152604080832081518083019092528782524282840190815260019182018054808401825590865293909420915160029093029091019182559151910155565b60408051828152602081018590523391600080516020615b73833981519152910160405180910390a250612fa6565b8015612fa6573360009081526007602052604081206005018054839290612e41908490615983565b90915550503360009081526007602052604081206004018054839290612e68908490615871565b90915550503360009081526007602052604081206003018054839290612e8f908490615871565b90915550503360009081526007602081905260408220018054839290612eb6908490615871565b925050819055508060296000828254612ecf9190615871565b9091555060009050612ee082610c69565b60175460405163a9059cbb60e01b81529192506001600160a01b03169063a9059cbb90612f139033908690600401615a5f565b6020604051808303816000875af1158015612f32573d6000803e3d6000fd5b505050506040513d601f19601f82011682018060405250810190612f569190615a42565b612f725760405162461bcd60e51b8152600401610f2d90615acd565b612f7b33612d97565b60408051828152602081018490523391600080516020615b73833981519152910160405180910390a2505b611abf613fe6565b6001600160a01b0381166000908152600a60209081526040808320805482518185028101850190935280835260609492939192909184018215610e0f57838290600052602060002090600202016040518060400160405290816000820154815260200160018201548152505081526020019060010190610dc9565b6001600160a01b038216600090815260016020908152604080832084845282529182902080548351818402810184019094528084526060939283018282801561309b57602002820191906000526020600020905b81546001600160a01b0316815260019091019060200180831161307d575b5050505050905092915050565b336000818152600860205260409020906130c190611c9b565b156118a557600060646014546030546130da9190615996565b6130e491906159ad565b90506000600e54826130f691906159ad565b905061310133611c9b565b1561319a57600061311182610c69565b33600090815260086020526040812060010180549293508392909190613138908490615871565b909155505060405133907fa4c898e193f9b90ee1075eb2dc37474589a0bb45bb6307b47ba6d456b00010e89061319090848152604060208201819052600790820152666d6f6e74686c7960c81b606082015260800190565b60405180910390a2505b600083600101549050808460030160008282546131b79190615871565b90915550506000600185015560175460405163a9059cbb60e01b81526001600160a01b039091169063a9059cbb906131f59033908590600401615a5f565b6020604051808303816000875af1158015613214573d6000803e3d6000fd5b505050506040513d601f19601f820116820180604052508101906132389190615a42565b6132545760405162461bcd60e51b8152600401610f2d90615acd565b336000908152600c6020908152604080832081518083019092528482524282840190815281546001808201845592865293909420915160029093029091019182559151910155612265565b6132ca6040518060800160405280600081526020016000815260200160008152602001600081525090565b6001600160a01b03831660009081526004602052604090206010018054839081106132f7576132f761589a565b9060005260206000209060040201604051806080016040529081600082015481526020016001820154815260200160028201548152602001600382015481525050905092915050565b602b818154811061335057600080fd5b6000918252602090912001546001600160a01b0316905081565b6015546000906001600160a01b039081169083160361338b57506001919050565b6001600160a01b03821660009081526004602052604090206011015460ff16156133b757506000919050565b6001600160a01b0382166000908152600460205260409020600201546005118061340557506001600160a01b03821660009081526004602081905260409091200154681b1ae4d6e2ef500000115b8061342c5750601d546001600160a01b038316600090815260046020526040902060030154105b1561343957506000919050565b6000805b6001600160a01b0384166000908152600460205260409020600201548110156134f4576001600160a01b03808516600090815260046020526040808220600101549092168082529190206003015468056bc75e2d63100000118015906134d857506001600160a01b0380861660009081526004602052604080822060129081015493851683529120015462015180916134d591615983565b11155b156134eb57826134e781615ab4565b9350505b5060010161343d565b506005111592915050565b6000613509612095565b6001600160a01b0316826001600160a01b03160361354057506001600160a01b031660009081526004602052604090206006015490565b6001600160a01b03821660009081526004602052604090206006015415613596576001600160a01b038216600090815260076020908152604080832060030154600490925290912060060154611ed59190615983565b506000919050565b6001600160a01b0382166000908152600460205260408120601001805482918291829190869081106135d2576135d261589a565b906000526020600020906004020160000154116135f35760008060006136b8565b6001600160a01b03851660009081526004602052604090206010018054859081106136205761362061589a565b60009182526020808320600492830201546001600160a01b0389168452919052604090912060100180548690811061365a5761365a61589a565b90600052602060002090600402016002015460046000886001600160a01b03166001600160a01b0316815260200190815260200160002060100186815481106136a5576136a561589a565b9060005260206000209060040201600101545b9250925092509250925092565b6001600160a01b0381166000908152600a60209081526040808320600201805482518185028101850190935280835260609492939192909184018215610e0f57838290600052602060002090600202016040518060400160405290816000820154815260200160018201548152505081526020019060010190610dc9565b61374c33614291565b3360008181526007602052604081206006015491613769906134ff565b9050601b5482101561378d5760405162461bcd60e51b8152600401610f2d90615aee565b818110613924573360009081526007602052604081206006810182905560040180548492906137bd908490615871565b909155505033600090815260076020526040812060030180548492906137e4908490615871565b9250508190555081602960008282546137fd9190615871565b909155506000905061380e83610c69565b60175460405163a9059cbb60e01b81529192506001600160a01b03169063a9059cbb906138419033908590600401615a5f565b6020604051808303816000875af1158015613860573d6000803e3d6000fd5b505050506040513d601f19601f820116820180604052508101906138849190615a42565b6138a05760405162461bcd60e51b8152600401610f2d90615acd565b6138f5335b6001600160a01b03166000908152600b6020908152604080832081518083019092528782524282840190815281546001808201845592865293909420915160029093029091019182559151910155565b60408051828152602081018590523391600080516020615b7383398151915291015b60405180910390a2505050565b8015611ac757336000908152600760205260408120600601805483929061394c908490615983565b90915550503360009081526007602052604081206004018054839290613973908490615871565b9091555050336000908152600760205260408120600301805483929061399a908490615871565b909155505033600090815260076020526040812060080180548392906139c1908490615871565b9250508190555080602960008282546139da9190615871565b90915550600090506139eb82610c69565b60175460405163a9059cbb60e01b81529192506001600160a01b03169063a9059cbb90613a1e9033908690600401615a5f565b6020604051808303816000875af1158015613a3d573d6000803e3d6000fd5b505050506040513d601f19601f82011682018060405250810190613a619190615a42565b613a7d5760405162461bcd60e51b8152600401610f2d90615acd565b613a86336138a5565b60408051828152602081018490523391600080516020615b738339815191529101613917565b613ad060405180606001604052806000815260200160008152602001600081525090565b506001600160a01b03166000908152600460209081526040918290208251606081018452600d8201548152600e82015492810192909252600f01549181019190915290565b613b1d614584565b6001600160a01b038116613b825760405162461bcd60e51b815260206004820152602660248201527f4f776e61626c653a206e6577206f776e657220697320746865207a65726f206160448201526564647265737360d01b6064820152608401610f2d565b6118a5816145e3565b6001600160a01b0381166000908152600b60209081526040808320600101805482518185028101850190935280835260609492939192909184018215610e0f57838290600052602060002090600202016040518060400160405290816000820154815260200160018201548152505081526020019060010190610dc9565b613c11615467565b6000805460ff60a01b191690557f5db9ee0a495bf2e6ff9c91a7834c1ba4fdd244a5e8aa4e537bd38aeae4b073aa335b604051613c4e9190615618565b60405180910390a1565b6001600160a01b03808216600090815260046020526040812060010154909116905b600a811015613d3a576001600160a01b03821615613d3a576001600160a01b038216600090815260026020526040902060040154613cb9906001615871565b6001600160a01b0383811660008181526002602090815260408083206004019590955560018082528583208784528252948220805495860181558252902090920180546001600160a01b03191691861691909117905515613d3a576001600160a01b0391821660009081526004602052604090206001015490911690613d3f565b505050565b600101613c7a565b6001600160a01b0381166000908152600260208181526040808420600381018590558084018590556001018490556004909152822001549003613d875750565b6000806000613d9584611f37565b6001600160a01b0390961660009081526002602081905260409091206003810192909255810195909555600190940193909355505050565b6001600160a01b038116600090815260046020526040902060020154600a11801590613e1e57506001600160a01b038116600090815260046020526040902060050154690878678326eac900000011155b8015613e2e5750613e2e816154a7565b15613e65576001600160a01b0381166000908152600460208190526040909120601101805461ff001916610100835b021790555050565b6001600160a01b038116600090815260046020526040902060020154600711801590613eb657506001600160a01b03811660009081526004602052604090206005015469043c33c193756480000011155b15613eea576001600160a01b038116600090815260046020526040902060110180546003919061ff00191661010083613e5d565b6001600160a01b038116600090815260046020526040902060020154600511801590613f3b57506001600160a01b03811660009081526004602081905260409091200154683635c9adc5dea0000011155b15613f6f576001600160a01b038116600090815260046020526040902060110180546002919061ff00191661010083613e5d565b6001600160a01b038116600090815260046020526040902060029081015410613fc1576001600160a01b038116600090815260046020526040902060110180546001919061ff00191661010083613e5d565b6001600160a01b03166000908152600460205260409020601101805461ff0019169055565b6013544290613ff890611c2090615871565b81106118a557601254603055602e54611c2090614016908290615871565b6140209190615871565b811061402c5760006030555b600060128190555b601e81101561408f5760008161404c610258856159ad565b6140569190615983565b60008181526009602052604090206001015490915015614086576000818152600960205260408120818155600101555b50600101614034565b5060138054602e5555565b60115442906140ac9061106890615871565b81106118a557600f54602d55602f54611068906140ca908290615871565b6140d49190615871565b81106140e0576000602d555b6000600f8190555b600781101561414357600081614100610258856159ad565b61410a9190615983565b6000818152600960205260409020600101549091501561413a576000818152600960205260408120818155600101555b506001016140e8565b5060118054602f5555565b6001600160a01b0381166000908152600460205260408120600f810154602654601854600e840154600d9094019385929161418891615996565b61419291906159ad565b90508142808210156141c2576023546141ab8383615983565b6141b59085615996565b6141bf91906159ad565b95505b6001600160a01b038716600090815260046020526040902042600f90910155600185015486116141f257856141f8565b84600101545b6001600160a01b0388166000908152600460205260408120600e018054909190614223908490615983565b90915550506001600160a01b03871660009081526007602052604081206002018054889290614253908490615871565b90915550506001600160a01b03871660009081526007602052604081206005018054889290614283908490615871565b909155505050505050505050565b60005b6001600160a01b038216600090815260046020526040902060100154811015614460576001600160a01b03821660009081526004602052604081206010018054839081106142e4576142e461589a565b6000918252602080832060049283020160038101546001600160a01b038816855292909152604090922060070154919250908181101561445557602654600184015484546000929161433591615996565b61433f91906159ad565b9050600082856002015411614354578261435a565b84600201545b9050600042851061436b574261436d565b845b905080821015614451576023546000906143878484615983565b6143919086615996565b61439b91906159ad565b6001600160a01b038a166000908152600460205260409020601001805491925082918a9081106143cd576143cd61589a565b906000526020600020906004020160000160008282546143ed9190615983565b90915550506001600160a01b0389166000908152600760205260408120805483929061441a908490615871565b90915550506001600160a01b0389166000908152600760205260408120600601805483929061444a908490615871565b9091555050505b5050505b505050600101614294565b506001600160a01b0316600090815260046020526040902042600790910155565b60008160000361449357506000611ed5565b60006144a0846000613029565b90506000805b82518110156145075760046000846000815181106144c6576144c661589a565b60200260200101516001600160a01b03166001600160a01b0316815260200190815260200160002060030154826144fd9190615871565b91506001016144a6565b5060005b6001600160a01b03861660009081526004602052604090206002015481101561457b576001600160a01b038087166000908152600460205260409020600190810154909116906145669082906145619089615983565b614481565b6145709084615871565b92505060010161450b565b50949350505050565b3361458d612095565b6001600160a01b0316146110635760405162461bcd60e51b815260206004820181905260248201527f4f776e61626c653a2063616c6c6572206973206e6f7420746865206f776e65726044820152606401610f2d565b600080546001600160a01b038381166001600160a01b0319831681178455604051919092169283917f8be0079c531659141344cd1fd0a4f28419497f9722a3daafe3b4186f6b6457e09190a35050565b61463b614676565b6000805460ff60a01b1916600160a01b1790557f62e78cea01bee320cd4e420270b5ea74000d11b0c9f74754ebdbfc544b05a258613c413390565b61467e611acb565b156110635760405162461bcd60e51b81526020600482015260066024820152651c185d5cd95960d21b6044820152606401610f2d565b60006146bf836134ff565b9050600060646146d0846005615996565b6146da91906159ad565b9050808210614826576001600160a01b0384166000908152600760205260408120600101805483929061470e908490615871565b90915550506001600160a01b0384166000908152600760205260408120600301805483929061473e908490615871565b909155505060165460405163a9059cbb60e01b81526001600160a01b039091169063a9059cbb906147759087908590600401615a5f565b6020604051808303816000875af1158015614794573d6000803e3d6000fd5b505050506040513d601f19601f820116820180604052508101906147b89190615a42565b6147d45760405162461bcd60e51b8152600401610f2d90615acd565b836001600160a01b0316856001600160a01b03167fa8d525aac785ea6bd6d783480d5c28ecbe28f03ab479a77935c9da19304bd1908360405161481991815260200190565b60405180910390a361496b565b811561496b576001600160a01b03841660009081526007602052604081206001018054849290614857908490615871565b90915550506001600160a01b03841660009081526007602052604081206003018054849290614887908490615871565b909155505060165460405163a9059cbb60e01b81526001600160a01b039091169063a9059cbb906148be9087908690600401615a5f565b6020604051808303816000875af11580156148dd573d6000803e3d6000fd5b505050506040513d601f19601f820116820180604052508101906149019190615a42565b61491d5760405162461bcd60e51b8152600401610f2d90615acd565b836001600160a01b0316856001600160a01b03167fa8d525aac785ea6bd6d783480d5c28ecbe28f03ab479a77935c9da19304bd1908460405161496291815260200190565b60405180910390a35b6001600160a01b0384166000908152600a602090815260408083208151808301909252868252428284019081526002918201805460018082018355918752949095209251939091029091019182555191015561162c565b60005b6027548160ff161015612265576001600160a01b03821615615332576001600160a01b03841660009081526004602052604090206003015468056bc75e2d6310000090614a13908590615871565b10158015614a4557506001600160a01b03841660009081526004602052604090206005015468056bc75e2d6310000011155b15615264578060ff16600003614ba3576001600160a01b03821660009081526004602081905260408220018054859290614a80908490615871565b9091555050602654614a948461012c615996565b614a9e91906159ad565b6001600160a01b0383166000908152600460205260408120600e018054909190614ac9908490615871565b9091555050602654614b41908390614ae38661012c615996565b614aed91906159ad565b6001600160a01b03919091166000908152600a602090815260408083208151808301909252938152428183019081526001948501805480870182559085529290932090516002909202019081559051910155565b6001600160a01b03808316908516600080516020615b53833981519152614b69846001615b1a565b602654614b788861012c615996565b614b8291906159ad565b6040805160ff909316835260208301919091520160405180910390a3615264565b8060ff166001148015614bd257506001600160a01b038216600090815260046020526040902060029081015410155b80614bea57506015546001600160a01b038381169116145b15614c8157602654614bfd846096615996565b614c0791906159ad565b6001600160a01b0383166000908152600460205260408120600e018054909190614c32908490615871565b9091555050602654614c4b908390614ae3866096615996565b6001600160a01b03808316908516600080516020615b53833981519152614c73846001615b1a565b602654614b78886096615996565b8060ff166002148015614cb057506001600160a01b038216600090815260046020526040902060029081015410155b8015614ce157506001600160a01b03821660009081526004602081905260409091200154680ad78ebc5ac620000011155b80614cf957506015546001600160a01b038381169116145b15614d9057602654614d0c84605a615996565b614d1691906159ad565b6001600160a01b0383166000908152600460205260408120600e018054909190614d41908490615871565b9091555050602654614d5a908390614ae386605a615996565b6001600160a01b03808316908516600080516020615b53833981519152614d82846001615b1a565b602654614b7888605a615996565b8060ff166003148015614dbf57506001600160a01b038216600090815260046020526040902060029081015410155b8015614df057506001600160a01b03821660009081526004602081905260409091200154680ad78ebc5ac620000011155b80614e0857506015546001600160a01b038381169116145b15614e9f57602654614e1b84603c615996565b614e2591906159ad565b6001600160a01b0383166000908152600460205260408120600e018054909190614e50908490615871565b9091555050602654614e69908390614ae386603c615996565b6001600160a01b03808316908516600080516020615b53833981519152614e91846001615b1a565b602654614b7888603c615996565b8060ff166004148015614ece57506001600160a01b038216600090815260046020526040902060029081015410155b8015614eff57506001600160a01b03821660009081526004602081905260409091200154680ad78ebc5ac620000011155b80614f1757506015546001600160a01b038381169116145b15614fae57602654614f2a84601e615996565b614f3491906159ad565b6001600160a01b0383166000908152600460205260408120600e018054909190614f5f908490615871565b9091555050602654614f78908390614ae386601e615996565b6001600160a01b03808316908516600080516020615b53833981519152614fa0846001615b1a565b602654614b7888601e615996565b8060ff166005148015614fdd57506001600160a01b038216600090815260046020526040902060020154600a11155b801561500e57506001600160a01b03821660009081526004602081905260409091200154681b1ae4d6e2ef50000011155b8061502657506015546001600160a01b038381169116145b1561503957602654614e1b84603c615996565b8060ff16600614801561506857506001600160a01b038216600090815260046020526040902060020154600a11155b801561509857506001600160a01b038216600090815260046020526040902060050154683635c9adc5dea0000011155b806150b057506015546001600160a01b038381169116145b156150c357602654614e1b84603c615996565b8060ff1660071480156150f257506001600160a01b038216600090815260046020526040902060020154600a11155b8061510a57506015546001600160a01b038381169116145b1561511d57602654614e1b84603c615996565b60088160ff1610158015615135575060098160ff1611155b801561515d57506001600160a01b038216600090815260046020526040902060020154600a11155b801561518e57506001600160a01b03821660009081526004602052604090206005015469021e19e0c9bab240000011155b806151a657506015546001600160a01b038381169116145b15615264576026546151b984605a615996565b6151c391906159ad565b6001600160a01b0383166000908152600460205260408120600e0180549091906151ee908490615871565b9091555050602654615207908390614ae386605a615996565b6001600160a01b03808316908516600080516020615b5383398151915261522f846001615b1a565b60265461523d88605a615996565b61524791906159ad565b6040805160ff909316835260208301919091520160405180910390a35b6001600160a01b0382166000908152600460205260409020600e0154158015906152a757506001600160a01b0382166000908152600460205260409020600f0154155b156152cc576001600160a01b038216600090815260046020526040902042600f909101555b6001600160a01b038216600090815260046020526040812060050180548592906152f7908490615871565b90915550615306905082611adb565b6001600160a01b03808316600090815260046020526040902060010154168061532f5750612265565b91505b8061533c81615b33565b9150506149c5565b6000615352610258426159ad565b6000818152600960205260408120600101549192500361539a576040805180820182526000808252426020808401918252858352600990529290209051815590516001909101555b600081815260096020526040812080548492906153b8908490615871565b9250508190555081601260008282546153d19190615871565b90915550505050565b60006153e8610258426159ad565b60008181526009602052604081206001015491925003615430576040805180820182526000808252426020808401918252858352600990529290209051815590516001909101555b6000818152600960205260408120805484929061544e908490615871565b9250508190555081600f60008282546153d19190615871565b61546f611acb565b6110635760405162461bcd60e51b81526020600482015260096024820152681b9bdd1c185d5cd95960ba1b6044820152606401610f2d565b600080805b6001600160a01b03841660009081526004602052604090206002015460ff8216101561556d576001600160a01b038085166000908152600460205260408082206001015490921680825291902060020154600a1180159061553257506001600160a01b038116600090815260046020526040902060050154690878678326eac900000011155b1561555a578261554181615b33565b93505060028360ff161061555a57506001949350505050565b508061556581615b33565b9150506154ac565b5060009392505050565b80356001600160a01b0381168114610fa857600080fd5b6000602082840312156155a057600080fd5b6155a982615577565b9392505050565b6000602082840312156155c257600080fd5b5035919050565b602080825282518282018190526000919060409081850190868401855b8281101561560b578151805185528601518685015292840192908501906001016155e6565b5091979650505050505050565b6001600160a01b0391909116815260200190565b6000806040838503121561563f57600080fd5b61564883615577565b915061565660208401615577565b90509250929050565b80518252602081015160208301526040810151604083015260608101516060830152608081015160808301525050565b60a08101611ed5828461565f565b6000806000606084860312156156b257600080fd5b6156bb84615577565b95602085013595506040909401359392505050565b600080604083850312156156e357600080fd5b6156ec83615577565b946020939093013593505050565b8051825260208082015190830152604090810151910152565b634e487b7160e01b600052602160045260246000fd5b8d81526001600160a01b038d166020820152604081018c9052606081018b9052608081018a905260a0810189905260c0810188905260e08101879052610260810161577861010083018861565f565b6157866101a08301876156fa565b841515610200830152600584106157ad57634e487b7160e01b600052602160045260246000fd5b61022082019390935261024001529b9a5050505050505050505050565b80151581146118a557600080fd5b6000602082840312156157ea57600080fd5b81356155a9816157ca565b60008151808452602080850194506020840160005b8381101561582f5781516001600160a01b03168752958201959082019060010161580a565b509495945050505050565b6020815260006155a960208301846157f5565b60608101611ed582846156fa565b634e487b7160e01b600052601160045260246000fd5b80820180821115611ed557611ed561585b565b634e487b7160e01b600052604160045260246000fd5b634e487b7160e01b600052603260045260246000fd5b8281526040602082015260006158c960408301846157f5565b949350505050565b600060208083850312156158e457600080fd5b825167ffffffffffffffff808211156158fc57600080fd5b818501915085601f83011261591057600080fd5b81518181111561592257615922615884565b8060051b604051601f19603f8301168101818110858211171561594757615947615884565b60405291825284820192508381018501918883111561596557600080fd5b938501935b82851015611c8f5784518452938501939285019261596a565b81810381811115611ed557611ed561585b565b8082028115828204841417611ed557611ed561585b565b6000826159ca57634e487b7160e01b600052601260045260246000fd5b500490565b60208082526002908201526106f760f41b604082015260600190565b6001600160a01b0392831681529116602082015260400190565b600060208284031215615a1757600080fd5b5051919050565b6001600160a01b039384168152919092166020820152604081019190915260600190565b600060208284031215615a5457600080fd5b81516155a9816157ca565b6001600160a01b03929092168252602082015260400190565b85815284602082015260a060408201526000615a9760a08301866157f5565b6001600160a01b0394909416606083015250608001529392505050565b600060018201615ac657615ac661585b565b5060010190565b6020808252600790820152661d1e0819985a5b60ca1b604082015260600190565b602080825260129082015271206d696e207769746864726177202431302160701b604082015260600190565b60ff8181168382160190811115611ed557611ed561585b565b600060ff821660ff8103615b4957615b4961585b565b6001019291505056fe701723a16ba68342394bc5230f847f7cdaab3e320fa44cd23b2f7021462b384bf279e6a1f5e320cca91135676d9cb6e44ca8a08c0b88342bcdb1144f6511b568a264697066735822122014903718248ca7aaf9e87960137ea1a4576f85c08b1012d8bd61cc4a34f6d3b864736f6c63430008180033",
  "linkReferences": {},
  "deployedLinkReferences": {}
}